{
  "contractName": "FxERC721ChildTunnel",
  "abi": [
    {
      "inputs": [
        {
          "internalType": "address",
          "name": "_fxChild",
          "type": "address"
        },
        {
          "internalType": "address",
          "name": "_childTokenTemplate",
          "type": "address"
        },
        {
          "internalType": "address",
          "name": "_rootTokenTemplate",
          "type": "address"
        }
      ],
      "stateMutability": "nonpayable",
      "type": "constructor"
    },
    {
      "anonymous": false,
      "inputs": [
        {
          "indexed": false,
          "internalType": "bytes",
          "name": "data",
          "type": "bytes"
        }
      ],
      "name": "FlowDeposit",
      "type": "event"
    },
    {
      "anonymous": false,
      "inputs": [
        {
          "indexed": false,
          "internalType": "bytes",
          "name": "message",
          "type": "bytes"
        }
      ],
      "name": "MessageSent",
      "type": "event"
    },
    {
      "anonymous": false,
      "inputs": [
        {
          "indexed": true,
          "internalType": "address",
          "name": "previousOwner",
          "type": "address"
        },
        {
          "indexed": true,
          "internalType": "address",
          "name": "newOwner",
          "type": "address"
        }
      ],
      "name": "OwnershipTransferred",
      "type": "event"
    },
    {
      "anonymous": false,
      "inputs": [
        {
          "indexed": true,
          "internalType": "address",
          "name": "rootToken",
          "type": "address"
        },
        {
          "indexed": true,
          "internalType": "address",
          "name": "childToken",
          "type": "address"
        }
      ],
      "name": "TokenMapped",
      "type": "event"
    },
    {
      "anonymous": false,
      "inputs": [
        {
          "indexed": false,
          "internalType": "bytes",
          "name": "data",
          "type": "bytes"
        }
      ],
      "name": "childToRoot",
      "type": "event"
    },
    {
      "inputs": [],
      "name": "DEPOSIT",
      "outputs": [
        {
          "internalType": "bytes32",
          "name": "",
          "type": "bytes32"
        }
      ],
      "stateMutability": "view",
      "type": "function"
    },
    {
      "inputs": [],
      "name": "childTokenTemplate",
      "outputs": [
        {
          "internalType": "address",
          "name": "",
          "type": "address"
        }
      ],
      "stateMutability": "view",
      "type": "function"
    },
    {
      "inputs": [
        {
          "internalType": "bytes32",
          "name": "salt",
          "type": "bytes32"
        },
        {
          "internalType": "bytes32",
          "name": "bytecodeHash",
          "type": "bytes32"
        },
        {
          "internalType": "address",
          "name": "deployer",
          "type": "address"
        }
      ],
      "name": "computedCreate2Address",
      "outputs": [
        {
          "internalType": "address",
          "name": "",
          "type": "address"
        }
      ],
      "stateMutability": "pure",
      "type": "function"
    },
    {
      "inputs": [],
      "name": "fxChild",
      "outputs": [
        {
          "internalType": "address",
          "name": "",
          "type": "address"
        }
      ],
      "stateMutability": "view",
      "type": "function"
    },
    {
      "inputs": [],
      "name": "fxRootTunnel",
      "outputs": [
        {
          "internalType": "address",
          "name": "",
          "type": "address"
        }
      ],
      "stateMutability": "view",
      "type": "function"
    },
    {
      "inputs": [],
      "name": "owner",
      "outputs": [
        {
          "internalType": "address",
          "name": "",
          "type": "address"
        }
      ],
      "stateMutability": "view",
      "type": "function"
    },
    {
      "inputs": [
        {
          "internalType": "uint256",
          "name": "stateId",
          "type": "uint256"
        },
        {
          "internalType": "address",
          "name": "rootMessageSender",
          "type": "address"
        },
        {
          "internalType": "bytes",
          "name": "data",
          "type": "bytes"
        }
      ],
      "name": "processMessageFromRoot",
      "outputs": [],
      "stateMutability": "nonpayable",
      "type": "function"
    },
    {
      "inputs": [],
      "name": "renounceOwnership",
      "outputs": [],
      "stateMutability": "nonpayable",
      "type": "function"
    },
    {
      "inputs": [
        {
          "internalType": "address",
          "name": "",
          "type": "address"
        }
      ],
      "name": "rootToChildToken",
      "outputs": [
        {
          "internalType": "address",
          "name": "",
          "type": "address"
        }
      ],
      "stateMutability": "view",
      "type": "function"
    },
    {
      "inputs": [],
      "name": "rootTokenTemplateCodeHash",
      "outputs": [
        {
          "internalType": "bytes32",
          "name": "",
          "type": "bytes32"
        }
      ],
      "stateMutability": "view",
      "type": "function"
    },
    {
      "inputs": [
        {
          "internalType": "address",
          "name": "_fxRootTunnel",
          "type": "address"
        }
      ],
      "name": "setFxRootTunnel",
      "outputs": [],
      "stateMutability": "nonpayable",
      "type": "function"
    },
    {
      "inputs": [
        {
          "internalType": "address",
          "name": "newOwner",
          "type": "address"
        }
      ],
      "name": "transferOwnership",
      "outputs": [],
      "stateMutability": "nonpayable",
      "type": "function"
    },
    {
      "inputs": [
        {
          "internalType": "address",
          "name": "",
          "type": "address"
        },
        {
          "internalType": "address",
          "name": "",
          "type": "address"
        },
        {
          "internalType": "uint256",
          "name": "",
          "type": "uint256"
        },
        {
          "internalType": "bytes",
          "name": "",
          "type": "bytes"
        }
      ],
      "name": "onERC721Received",
      "outputs": [
        {
          "internalType": "bytes4",
          "name": "",
          "type": "bytes4"
        }
      ],
      "stateMutability": "pure",
      "type": "function"
    },
    {
      "inputs": [
        {
          "internalType": "uint256",
          "name": "uniqueId",
          "type": "uint256"
        },
        {
          "internalType": "string",
          "name": "name",
          "type": "string"
        },
        {
          "internalType": "string",
          "name": "symbol",
          "type": "string"
        }
      ],
      "name": "deployChildToken",
      "outputs": [],
      "stateMutability": "nonpayable",
      "type": "function"
    },
    {
      "inputs": [
        {
          "internalType": "address",
          "name": "childToken",
          "type": "address"
        },
        {
          "internalType": "uint256",
          "name": "tokenId",
          "type": "uint256"
        },
        {
          "internalType": "bytes",
          "name": "data",
          "type": "bytes"
        }
      ],
      "name": "withdraw",
      "outputs": [],
      "stateMutability": "nonpayable",
      "type": "function"
    },
    {
      "inputs": [
        {
          "internalType": "bytes",
          "name": "data",
          "type": "bytes"
        }
      ],
      "name": "processMessageFromFLow",
      "outputs": [],
      "stateMutability": "nonpayable",
      "type": "function"
    },
    {
      "inputs": [
        {
          "internalType": "address",
          "name": "childToken",
          "type": "address"
        },
        {
          "internalType": "address",
          "name": "to",
          "type": "address"
        },
        {
          "internalType": "uint256",
          "name": "tokenId",
          "type": "uint256"
        }
      ],
      "name": "withdrawToFlow",
      "outputs": [],
      "stateMutability": "nonpayable",
      "type": "function"
    },
    {
      "inputs": [
        {
          "internalType": "address",
          "name": "sender",
          "type": "address"
        },
        {
          "internalType": "bytes",
          "name": "syncData",
          "type": "bytes"
        }
      ],
      "name": "syncDeposit",
      "outputs": [],
      "stateMutability": "nonpayable",
      "type": "function"
    }
  ],
  "bytecode": "0x60806040523480156200001157600080fd5b50604051620030d2380380620030d28339818101604052810190620000379190620002d1565b826000339050806000806101000a81548173ffffffffffffffffffffffffffffffffffffffff021916908373ffffffffffffffffffffffffffffffffffffffff1602179055508073ffffffffffffffffffffffffffffffffffffffff16600073ffffffffffffffffffffffffffffffffffffffff167f8be0079c531659141344cd1fd0a4f28419497f9722a3daafe3b4186f6b6457e060405160405180910390a35080600160006101000a81548173ffffffffffffffffffffffffffffffffffffffff021916908373ffffffffffffffffffffffffffffffffffffffff1602179055505081600460006101000a81548173ffffffffffffffffffffffffffffffffffffffff021916908373ffffffffffffffffffffffffffffffffffffffff1602179055506200016d82620001d660201b60201c565b620001af576040517f08c379a0000000000000000000000000000000000000000000000000000000008152600401620001a6906200038e565b60405180910390fd5b620001c081620001ef60201b60201c565b80519060200120600581905550505050620004f9565b600080823b905060008163ffffffff1611915050919050565b60606000693d602d80600a3d3981f360b01b9050600069363d3d373d3d3d363d7360b01b905060008460601b905060006e5af43d82803e903d91602b57fd5bf360881b9050838383836040516020016200024d9493929190620004a3565b604051602081830303815290604052945050505050919050565b600080fd5b600073ffffffffffffffffffffffffffffffffffffffff82169050919050565b600062000299826200026c565b9050919050565b620002ab816200028c565b8114620002b757600080fd5b50565b600081519050620002cb81620002a0565b92915050565b600080600060608486031215620002ed57620002ec62000267565b5b6000620002fd86828701620002ba565b93505060206200031086828701620002ba565b92505060406200032386828701620002ba565b9150509250925092565b600082825260208201905092915050565b7f546f6b656e2074656d706c617465206973206e6f7420636f6e74726163740000600082015250565b600062000376601e836200032d565b915062000383826200033e565b602082019050919050565b60006020820190508181036000830152620003a98162000367565b9050919050565b60007fffffffffffffffffffff0000000000000000000000000000000000000000000082169050919050565b6000819050919050565b620003fb620003f582620003b0565b620003dc565b82525050565b60007fffffffffffffffffffffffffffffffffffffffff00000000000000000000000082169050919050565b6000819050919050565b6200044c620004468262000401565b6200042d565b82525050565b60007fffffffffffffffffffffffffffffff000000000000000000000000000000000082169050919050565b6000819050919050565b6200049d620004978262000452565b6200047e565b82525050565b6000620004b18287620003e6565b600a82019150620004c38286620003e6565b600a82019150620004d5828562000437565b601482019150620004e7828462000488565b600f8201915081905095945050505050565b612bc980620005096000396000f3fe608060405234801561001057600080fd5b50600436106101165760003560e01c80639a7c4b71116100a2578063cb37390b11610071578063cb37390b146102a7578063d81c8e52146102c3578063df8ed9c3146102e1578063ea60c7c4146102fd578063f2fde38b1461032d57610116565b80639a7c4b7114610233578063a22b10d41461024f578063a3984fec1461026b578063b68ad1e41461028957610116565b8063715018a6116100e9578063715018a6146101a15780637337957f146101ab5780637f1e9cb0146101db57806388837094146101f95780638da5cb5b1461021557610116565b806303dd1ed91461011b578063150b7a021461013757806331f0926514610167578063450d11f014610183575b600080fd5b61013560048036038101906101309190611987565b610349565b005b610151600480360381019061014c9190611ac4565b610628565b60405161015e9190611b87565b60405180910390f35b610181600480360381019061017c9190611ba2565b61063d565b005b61018b610a17565b6040516101989190611c20565b60405180910390f35b6101a9610a3d565b005b6101c560048036038101906101c09190611c71565b610b89565b6040516101d29190611c20565b60405180910390f35b6101e3610bcd565b6040516101f09190611c20565b60405180910390f35b610213600480360381019061020e9190611cc4565b610bf3565b005b61021d610cc8565b60405161022a9190611c20565b60405180910390f35b61024d60048036038101906102489190611cf1565b610cf1565b005b61026960048036038101906102649190611d65565b610dd6565b005b610273610de6565b6040516102809190611dd0565b60405180910390f35b610291610dec565b60405161029e9190611c20565b60405180910390f35b6102c160048036038101906102bc9190611deb565b610e12565b005b6102cb610f74565b6040516102d89190611dd0565b60405180910390f35b6102fb60048036038101906102f69190611edf565b610f98565b005b61031760048036038101906103129190611cc4565b6112ff565b6040516103249190611c20565b60405180910390f35b61034760048036038101906103429190611cc4565b611332565b005b3373ffffffffffffffffffffffffffffffffffffffff1660008054906101000a900473ffffffffffffffffffffffffffffffffffffffff1673ffffffffffffffffffffffffffffffffffffffff16146103d7576040517f08c379a00000000000000000000000000000000000000000000000000000000081526004016103ce90611fc7565b60405180910390fd5b600080600080848060200190518101906103f191906120dd565b9350935093509350600084905060008173ffffffffffffffffffffffffffffffffffffffff16630a8a49146040518163ffffffff1660e01b8152600401602060405180830381865afa15801561044b573d6000803e3d6000fd5b505050506040513d601f19601f8201168201806040525081019061046f9190612175565b9050600073ffffffffffffffffffffffffffffffffffffffff168673ffffffffffffffffffffffffffffffffffffffff16141580156104db5750600073ffffffffffffffffffffffffffffffffffffffff168173ffffffffffffffffffffffffffffffffffffffff1614155b80156105715750600360008273ffffffffffffffffffffffffffffffffffffffff1673ffffffffffffffffffffffffffffffffffffffff16815260200190815260200160002060009054906101000a900473ffffffffffffffffffffffffffffffffffffffff1673ffffffffffffffffffffffffffffffffffffffff168673ffffffffffffffffffffffffffffffffffffffff16145b6105b0576040517f08c379a00000000000000000000000000000000000000000000000000000000081526004016105a790612214565b60405180910390fd5b8173ffffffffffffffffffffffffffffffffffffffff166394d008ef8686866040518463ffffffff1660e01b81526004016105ed93929190612298565b600060405180830381600087803b15801561060757600080fd5b505af115801561061b573d6000803e3d6000fd5b5050505050505050505050565b600063150b7a0260e01b905095945050505050565b600083905060008173ffffffffffffffffffffffffffffffffffffffff16630a8a49146040518163ffffffff1660e01b8152600401602060405180830381865afa15801561068f573d6000803e3d6000fd5b505050506040513d601f19601f820116820180604052508101906106b39190612175565b9050600073ffffffffffffffffffffffffffffffffffffffff168573ffffffffffffffffffffffffffffffffffffffff161415801561071f5750600073ffffffffffffffffffffffffffffffffffffffff168173ffffffffffffffffffffffffffffffffffffffff1614155b80156107b55750600360008273ffffffffffffffffffffffffffffffffffffffff1673ffffffffffffffffffffffffffffffffffffffff16815260200190815260200160002060009054906101000a900473ffffffffffffffffffffffffffffffffffffffff1673ffffffffffffffffffffffffffffffffffffffff168573ffffffffffffffffffffffffffffffffffffffff16145b6107f4576040517f08c379a00000000000000000000000000000000000000000000000000000000081526004016107eb90612214565b60405180910390fd5b8173ffffffffffffffffffffffffffffffffffffffff166342966c68856040518263ffffffff1660e01b815260040161082d91906122d6565b600060405180830381600087803b15801561084757600080fd5b505af115801561085b573d6000803e3d6000fd5b50505050600085905060008173ffffffffffffffffffffffffffffffffffffffff166306fdde036040518163ffffffff1660e01b8152600401600060405180830381865afa1580156108b1573d6000803e3d6000fd5b505050506040513d6000823e3d601f19601f820116820180604052508101906108da9190612361565b905060008273ffffffffffffffffffffffffffffffffffffffff166395d89b416040518163ffffffff1660e01b8152600401600060405180830381865afa158015610929573d6000803e3d6000fd5b505050506040513d6000823e3d601f19601f820116820180604052508101906109529190612361565b9050600082826040516020016109699291906123ee565b60405160208183030381529060405290507f26770b4fd14bde2fcc62da67a8eee7cdcab46d563ec72ec24ee29ad4bad3dac7858a338b8b866040516020016109b696959493929190612425565b6040516020818303038152906040526040516109d29190612494565b60405180910390a1610a0c858a338b8b866040516020016109f896959493929190612425565b6040516020818303038152906040526114ec565b505050505050505050565b600160009054906101000a900473ffffffffffffffffffffffffffffffffffffffff1681565b3373ffffffffffffffffffffffffffffffffffffffff1660008054906101000a900473ffffffffffffffffffffffffffffffffffffffff1673ffffffffffffffffffffffffffffffffffffffff1614610acb576040517f08c379a0000000000000000000000000000000000000000000000000000000008152600401610ac290611fc7565b60405180910390fd5b600073ffffffffffffffffffffffffffffffffffffffff1660008054906101000a900473ffffffffffffffffffffffffffffffffffffffff1673ffffffffffffffffffffffffffffffffffffffff167f8be0079c531659141344cd1fd0a4f28419497f9722a3daafe3b4186f6b6457e060405160405180910390a360008060006101000a81548173ffffffffffffffffffffffffffffffffffffffff021916908373ffffffffffffffffffffffffffffffffffffffff160217905550565b60008060ff60f81b838686604051602001610ba7949392919061256c565b6040516020818303038152906040528051906020012090508060001c9150509392505050565b600260009054906101000a900473ffffffffffffffffffffffffffffffffffffffff1681565b600073ffffffffffffffffffffffffffffffffffffffff16600260009054906101000a900473ffffffffffffffffffffffffffffffffffffffff1673ffffffffffffffffffffffffffffffffffffffff1614610c84576040517f08c379a0000000000000000000000000000000000000000000000000000000008152600401610c7b9061262c565b60405180910390fd5b80600260006101000a81548173ffffffffffffffffffffffffffffffffffffffff021916908373ffffffffffffffffffffffffffffffffffffffff16021790555050565b60008060009054906101000a900473ffffffffffffffffffffffffffffffffffffffff16905090565b600160009054906101000a900473ffffffffffffffffffffffffffffffffffffffff1673ffffffffffffffffffffffffffffffffffffffff163373ffffffffffffffffffffffffffffffffffffffff1614610d81576040517f08c379a0000000000000000000000000000000000000000000000000000000008152600401610d78906126be565b60405180910390fd5b610dd0848484848080601f016020809104026020016040519081016040528093929190818152602001838380828437600081840152601f19601f82011690508083019250505050505050611526565b50505050565b610de260008383611526565b5050565b60055481565b600460009054906101000a900473ffffffffffffffffffffffffffffffffffffffff1681565b3373ffffffffffffffffffffffffffffffffffffffff1660008054906101000a900473ffffffffffffffffffffffffffffffffffffffff1673ffffffffffffffffffffffffffffffffffffffff1614610ea0576040517f08c379a0000000000000000000000000000000000000000000000000000000008152600401610e9790611fc7565b60405180910390fd5b60008390508073ffffffffffffffffffffffffffffffffffffffff166342966c68836040518263ffffffff1660e01b8152600401610ede91906122d6565b600060405180830381600087803b158015610ef857600080fd5b505af1158015610f0c573d6000803e3d6000fd5b5050505060008383604051602001610f259291906126de565b60405160208183030381529060405290507f60cdc3ebcd44c13f5385884040fabe662bd619e801303b73a75e472048d2679181604051610f659190612494565b60405180910390a15050505050565b7f87a7811f4bfedea3d341ad165680ae306b01aaeacc205d227629cf157dd9f82181565b3373ffffffffffffffffffffffffffffffffffffffff1660008054906101000a900473ffffffffffffffffffffffffffffffffffffffff1673ffffffffffffffffffffffffffffffffffffffff1614611026576040517f08c379a000000000000000000000000000000000000000000000000000000000815260040161101d90611fc7565b60405180910390fd5b6000836040516020016110399190612728565b604051602081830303815290604052805190602001209050600061107f82600460009054906101000a900473ffffffffffffffffffffffffffffffffffffffff1661164a565b90506000816040516020016110949190612743565b60405160208183030381529060405280519060200120905060006110dd82600554600260009054906101000a900473ffffffffffffffffffffffffffffffffffffffff16610b89565b9050600073ffffffffffffffffffffffffffffffffffffffff16600360008373ffffffffffffffffffffffffffffffffffffffff1673ffffffffffffffffffffffffffffffffffffffff16815260200190815260200160002060009054906101000a900473ffffffffffffffffffffffffffffffffffffffff1673ffffffffffffffffffffffffffffffffffffffff16146111ad576040517f08c379a00000000000000000000000000000000000000000000000000000000081526004016111a4906127d0565b60405180910390fd5b82600360008373ffffffffffffffffffffffffffffffffffffffff1673ffffffffffffffffffffffffffffffffffffffff16815260200190815260200160002060006101000a81548173ffffffffffffffffffffffffffffffffffffffff021916908373ffffffffffffffffffffffffffffffffffffffff1602179055508273ffffffffffffffffffffffffffffffffffffffff168173ffffffffffffffffffffffffffffffffffffffff167f85920d35e6c72f6b2affffa04298b0cecfeba86e4a9f407df661f1cb8ab5e61760405160405180910390a38273ffffffffffffffffffffffffffffffffffffffff16632016a0d2308389896040518563ffffffff1660e01b81526004016112c494939291906127f0565b600060405180830381600087803b1580156112de57600080fd5b505af11580156112f2573d6000803e3d6000fd5b5050505050505050505050565b60036020528060005260406000206000915054906101000a900473ffffffffffffffffffffffffffffffffffffffff1681565b3373ffffffffffffffffffffffffffffffffffffffff1660008054906101000a900473ffffffffffffffffffffffffffffffffffffffff1673ffffffffffffffffffffffffffffffffffffffff16146113c0576040517f08c379a00000000000000000000000000000000000000000000000000000000081526004016113b790611fc7565b60405180910390fd5b600073ffffffffffffffffffffffffffffffffffffffff168173ffffffffffffffffffffffffffffffffffffffff160361142f576040517f08c379a0000000000000000000000000000000000000000000000000000000008152600401611426906128b5565b60405180910390fd5b8073ffffffffffffffffffffffffffffffffffffffff1660008054906101000a900473ffffffffffffffffffffffffffffffffffffffff1673ffffffffffffffffffffffffffffffffffffffff167f8be0079c531659141344cd1fd0a4f28419497f9722a3daafe3b4186f6b6457e060405160405180910390a3806000806101000a81548173ffffffffffffffffffffffffffffffffffffffff021916908373ffffffffffffffffffffffffffffffffffffffff16021790555050565b7f8c5261668696ce22758910d05bab8f186d6eb247ceac2af2e82c7dc17669b0368160405161151b9190612494565b60405180910390a150565b81600260009054906101000a900473ffffffffffffffffffffffffffffffffffffffff1673ffffffffffffffffffffffffffffffffffffffff168173ffffffffffffffffffffffffffffffffffffffff16146115b7576040517f08c379a00000000000000000000000000000000000000000000000000000000081526004016115ae90612947565b60405180910390fd5b600080838060200190518101906115ce919061297c565b915091507f87a7811f4bfedea3d341ad165680ae306b01aaeacc205d227629cf157dd9f82182036116075761160281611725565b611642565b6040517f08c379a000000000000000000000000000000000000000000000000000000000815260040161163990612a4a565b60405180910390fd5b505050505050565b6000808260601b90506040517f3d602d80600a3d3981f3363d3d373d3d3d363d7300000000000000000000000081528160148201527f5af43d82803e903d91602b57fd5bf300000000000000000000000000000000006028820152846037826000f5925050600073ffffffffffffffffffffffffffffffffffffffff168273ffffffffffffffffffffffffffffffffffffffff160361171e576040517f08c379a000000000000000000000000000000000000000000000000000000000815260040161171590612adc565b60405180910390fd5b5092915050565b6000806000806000858060200190518101906117419190612afc565b945094509450945094506000600360008773ffffffffffffffffffffffffffffffffffffffff1673ffffffffffffffffffffffffffffffffffffffff16815260200190815260200160002060009054906101000a900473ffffffffffffffffffffffffffffffffffffffff16905060008190508073ffffffffffffffffffffffffffffffffffffffff166394d008ef8686866040518463ffffffff1660e01b81526004016117f193929190612298565b600060405180830381600087803b15801561180b57600080fd5b505af115801561181f573d6000803e3d6000fd5b505050505050505050505050565b6000604051905090565b600080fd5b600080fd5b600080fd5b600080fd5b6000601f19601f8301169050919050565b7f4e487b7100000000000000000000000000000000000000000000000000000000600052604160045260246000fd5b6118948261184b565b810181811067ffffffffffffffff821117156118b3576118b261185c565b5b80604052505050565b60006118c661182d565b90506118d2828261188b565b919050565b600067ffffffffffffffff8211156118f2576118f161185c565b5b6118fb8261184b565b9050602081019050919050565b82818337600083830152505050565b600061192a611925846118d7565b6118bc565b90508281526020810184848401111561194657611945611846565b5b611951848285611908565b509392505050565b600082601f83011261196e5761196d611841565b5b813561197e848260208601611917565b91505092915050565b60006020828403121561199d5761199c611837565b5b600082013567ffffffffffffffff8111156119bb576119ba61183c565b5b6119c784828501611959565b91505092915050565b600073ffffffffffffffffffffffffffffffffffffffff82169050919050565b60006119fb826119d0565b9050919050565b611a0b816119f0565b8114611a1657600080fd5b50565b600081359050611a2881611a02565b92915050565b6000819050919050565b611a4181611a2e565b8114611a4c57600080fd5b50565b600081359050611a5e81611a38565b92915050565b600080fd5b600080fd5b60008083601f840112611a8457611a83611841565b5b8235905067ffffffffffffffff811115611aa157611aa0611a64565b5b602083019150836001820283011115611abd57611abc611a69565b5b9250929050565b600080600080600060808688031215611ae057611adf611837565b5b6000611aee88828901611a19565b9550506020611aff88828901611a19565b9450506040611b1088828901611a4f565b935050606086013567ffffffffffffffff811115611b3157611b3061183c565b5b611b3d88828901611a6e565b92509250509295509295909350565b60007fffffffff0000000000000000000000000000000000000000000000000000000082169050919050565b611b8181611b4c565b82525050565b6000602082019050611b9c6000830184611b78565b92915050565b600080600060608486031215611bbb57611bba611837565b5b6000611bc986828701611a19565b9350506020611bda86828701611a4f565b925050604084013567ffffffffffffffff811115611bfb57611bfa61183c565b5b611c0786828701611959565b9150509250925092565b611c1a816119f0565b82525050565b6000602082019050611c356000830184611c11565b92915050565b6000819050919050565b611c4e81611c3b565b8114611c5957600080fd5b50565b600081359050611c6b81611c45565b92915050565b600080600060608486031215611c8a57611c89611837565b5b6000611c9886828701611c5c565b9350506020611ca986828701611c5c565b9250506040611cba86828701611a19565b9150509250925092565b600060208284031215611cda57611cd9611837565b5b6000611ce884828501611a19565b91505092915050565b60008060008060608587031215611d0b57611d0a611837565b5b6000611d1987828801611a4f565b9450506020611d2a87828801611a19565b935050604085013567ffffffffffffffff811115611d4b57611d4a61183c565b5b611d5787828801611a6e565b925092505092959194509250565b60008060408385031215611d7c57611d7b611837565b5b6000611d8a85828601611a19565b925050602083013567ffffffffffffffff811115611dab57611daa61183c565b5b611db785828601611959565b9150509250929050565b611dca81611c3b565b82525050565b6000602082019050611de56000830184611dc1565b92915050565b600080600060608486031215611e0457611e03611837565b5b6000611e1286828701611a19565b9350506020611e2386828701611a19565b9250506040611e3486828701611a4f565b9150509250925092565b600067ffffffffffffffff821115611e5957611e5861185c565b5b611e628261184b565b9050602081019050919050565b6000611e82611e7d84611e3e565b6118bc565b905082815260208101848484011115611e9e57611e9d611846565b5b611ea9848285611908565b509392505050565b600082601f830112611ec657611ec5611841565b5b8135611ed6848260208601611e6f565b91505092915050565b600080600060608486031215611ef857611ef7611837565b5b6000611f0686828701611a4f565b935050602084013567ffffffffffffffff811115611f2757611f2661183c565b5b611f3386828701611eb1565b925050604084013567ffffffffffffffff811115611f5457611f5361183c565b5b611f6086828701611eb1565b9150509250925092565b600082825260208201905092915050565b7f4f776e61626c653a2063616c6c6572206973206e6f7420746865206f776e6572600082015250565b6000611fb1602083611f6a565b9150611fbc82611f7b565b602082019050919050565b60006020820190508181036000830152611fe081611fa4565b9050919050565b6000611ff2826119d0565b9050919050565b61200281611fe7565b811461200d57600080fd5b50565b60008151905061201f81611ff9565b92915050565b60008151905061203481611a38565b92915050565b60005b8381101561205857808201518184015260208101905061203d565b83811115612067576000848401525b50505050565b600061208061207b846118d7565b6118bc565b90508281526020810184848401111561209c5761209b611846565b5b6120a784828561203a565b509392505050565b600082601f8301126120c4576120c3611841565b5b81516120d484826020860161206d565b91505092915050565b600080600080608085870312156120f7576120f6611837565b5b600061210587828801612010565b945050602061211687828801612010565b935050604061212787828801612025565b925050606085015167ffffffffffffffff8111156121485761214761183c565b5b612154878288016120af565b91505092959194509250565b60008151905061216f81611a02565b92915050565b60006020828403121561218b5761218a611837565b5b600061219984828501612160565b91505092915050565b7f46784552433732314368696c6454756e6e656c3a204e4f5f4d41505045445f5460008201527f4f4b454e00000000000000000000000000000000000000000000000000000000602082015250565b60006121fe602483611f6a565b9150612209826121a2565b604082019050919050565b6000602082019050818103600083015261222d816121f1565b9050919050565b61223d81611a2e565b82525050565b600081519050919050565b600082825260208201905092915050565b600061226a82612243565b612274818561224e565b935061228481856020860161203a565b61228d8161184b565b840191505092915050565b60006060820190506122ad6000830186611c11565b6122ba6020830185612234565b81810360408301526122cc818461225f565b9050949350505050565b60006020820190506122eb6000830184612234565b92915050565b60006123046122ff84611e3e565b6118bc565b9050828152602081018484840111156123205761231f611846565b5b61232b84828561203a565b509392505050565b600082601f83011261234857612347611841565b5b81516123588482602086016122f1565b91505092915050565b60006020828403121561237757612376611837565b5b600082015167ffffffffffffffff8111156123955761239461183c565b5b6123a184828501612333565b91505092915050565b600081519050919050565b60006123c0826123aa565b6123ca8185611f6a565b93506123da81856020860161203a565b6123e38161184b565b840191505092915050565b6000604082019050818103600083015261240881856123b5565b9050818103602083015261241c81846123b5565b90509392505050565b600060c08201905061243a6000830189611c11565b6124476020830188611c11565b6124546040830187611c11565b6124616060830186612234565b8181036080830152612473818561225f565b905081810360a0830152612487818461225f565b9050979650505050505050565b600060208201905081810360008301526124ae818461225f565b905092915050565b60007fff0000000000000000000000000000000000000000000000000000000000000082169050919050565b6000819050919050565b6124fd6124f8826124b6565b6124e2565b82525050565b60008160601b9050919050565b600061251b82612503565b9050919050565b600061252d82612510565b9050919050565b612545612540826119f0565b612522565b82525050565b6000819050919050565b61256661256182611c3b565b61254b565b82525050565b600061257882876124ec565b6001820191506125888286612534565b6014820191506125988285612555565b6020820191506125a88284612555565b60208201915081905095945050505050565b7f4678426173654368696c6454756e6e656c3a20524f4f545f54554e4e454c5f4160008201527f4c52454144595f53455400000000000000000000000000000000000000000000602082015250565b6000612616602a83611f6a565b9150612621826125ba565b604082019050919050565b6000602082019050818103600083015261264581612609565b9050919050565b7f4678426173654368696c6454756e6e656c3a20494e56414c49445f53454e444560008201527f5200000000000000000000000000000000000000000000000000000000000000602082015250565b60006126a8602183611f6a565b91506126b38261264c565b604082019050919050565b600060208201905081810360008301526126d78161269b565b9050919050565b60006040820190506126f36000830185611c11565b6127006020830184612234565b9392505050565b6000819050919050565b61272261271d82611a2e565b612707565b82525050565b60006127348284612711565b60208201915081905092915050565b600061274f8284612534565b60148201915081905092915050565b7f46784d696e7461626c654552433732314368696c6454756e6e656c3a20414c5260008201527f454144595f4d4150504544000000000000000000000000000000000000000000602082015250565b60006127ba602b83611f6a565b91506127c58261275e565b604082019050919050565b600060208201905081810360008301526127e9816127ad565b9050919050565b60006080820190506128056000830187611c11565b6128126020830186611c11565b818103604083015261282481856123b5565b9050818103606083015261283881846123b5565b905095945050505050565b7f4f776e61626c653a206e6577206f776e657220697320746865207a65726f206160008201527f6464726573730000000000000000000000000000000000000000000000000000602082015250565b600061289f602683611f6a565b91506128aa82612843565b604082019050919050565b600060208201905081810360008301526128ce81612892565b9050919050565b7f4678426173654368696c6454756e6e656c3a20494e56414c49445f53454e444560008201527f525f46524f4d5f524f4f54000000000000000000000000000000000000000000602082015250565b6000612931602b83611f6a565b915061293c826128d5565b604082019050919050565b6000602082019050818103600083015261296081612924565b9050919050565b60008151905061297681611c45565b92915050565b6000806040838503121561299357612992611837565b5b60006129a185828601612967565b925050602083015167ffffffffffffffff8111156129c2576129c161183c565b5b6129ce858286016120af565b9150509250929050565b7f46784552433732314368696c6454756e6e656c3a20494e56414c49445f53594e60008201527f435f545950450000000000000000000000000000000000000000000000000000602082015250565b6000612a34602683611f6a565b9150612a3f826129d8565b604082019050919050565b60006020820190508181036000830152612a6381612a27565b9050919050565b7f437265617465323a204661696c6564206f6e206d696e696d616c206465706c6f60008201527f7900000000000000000000000000000000000000000000000000000000000000602082015250565b6000612ac6602183611f6a565b9150612ad182612a6a565b604082019050919050565b60006020820190508181036000830152612af581612ab9565b9050919050565b600080600080600060a08688031215612b1857612b17611837565b5b6000612b2688828901612010565b9550506020612b3788828901612010565b9450506040612b4888828901612010565b9350506060612b5988828901612025565b925050608086015167ffffffffffffffff811115612b7a57612b7961183c565b5b612b86888289016120af565b915050929550929590935056fea2646970667358221220bf7d78de8459716236594db00cc7edfd58abf1eebb1a502162853ccf6408054a64736f6c634300080f0033",
  "immutableReferences": {},
  "source": "// SPDX-License-Identifier: MIT\r\n// different contract for tests\r\n\r\npragma solidity ^0.8.0;\r\n\r\nimport {FxBaseChildTunnel} from \"./FxBaseChildTunnel.sol\";\r\nimport {Create2} from \"./Create2.sol\";\r\nimport {FxERC721} from \"./FxERC721.sol\";\r\nimport {IERC721Receiver} from \"./IERC721Receiver.sol\";\r\nimport {Ownable} from \"./Ownable.sol\";\r\n\r\ncontract FxERC721ChildTunnel is\r\n    Ownable,\r\n    FxBaseChildTunnel,\r\n    Create2,\r\n    IERC721Receiver\r\n{\r\n    bytes32 public constant DEPOSIT = keccak256(\"DEPOSIT\");\r\n    //bytes32 public constant MAP_TOKEN = keccak256(\"MAP_TOKEN\");\r\n\r\n    // event for token maping\r\n    event TokenMapped(address indexed rootToken, address indexed childToken);\r\n    // root to child token\r\n    mapping(address => address) public rootToChildToken;\r\n    // child token template\r\n    address public childTokenTemplate;\r\n    // root token tempalte code hash\r\n    bytes32 public rootTokenTemplateCodeHash;\r\n\r\n    event FlowDeposit(bytes data);\r\n\r\n    // TODO: Remove\r\n    event childToRoot(bytes data);\r\n\r\n    constructor(\r\n        address _fxChild,\r\n        address _childTokenTemplate,\r\n        address _rootTokenTemplate\r\n    ) FxBaseChildTunnel(_fxChild) {\r\n        childTokenTemplate = _childTokenTemplate;\r\n        require(\r\n            _isContract(_childTokenTemplate),\r\n            \"Token template is not contract\"\r\n        );\r\n        // compute root token template code hash\r\n        rootTokenTemplateCodeHash = keccak256(\r\n            minimalProxyCreationCode(_rootTokenTemplate)\r\n        );\r\n    }\r\n\r\n    function onERC721Received(\r\n        address, /* operator */\r\n        address, /* from */\r\n        uint256, /* tokenId */\r\n        bytes calldata /* data */\r\n    ) external pure override returns (bytes4) {\r\n        return this.onERC721Received.selector;\r\n    }\r\n\r\n    // // TODO: Needs to be implemented correctly based on what we get from flow\r\n    // function sendApproval(\r\n    //     address childToken,\r\n    //     bool approval,\r\n    //     uint256 tokenId\r\n    // ) public onlyOwner {\r\n    //     FxERC721(childToken).setApproval(approval, tokenId);\r\n    // }\r\n\r\n    // deploy child token with unique id\r\n    function deployChildToken(\r\n        uint256 uniqueId,\r\n        string memory name,\r\n        string memory symbol\r\n    ) public onlyOwner {\r\n        // deploy new child token using unique id\r\n        bytes32 childSalt = keccak256(abi.encodePacked(uniqueId));\r\n        address childToken = createClone(childSalt, childTokenTemplate);\r\n\r\n        // compute root token address before deployment using create2\r\n        bytes32 rootSalt = keccak256(abi.encodePacked(childToken));\r\n        address rootToken = computedCreate2Address(\r\n            rootSalt,\r\n            rootTokenTemplateCodeHash,\r\n            fxRootTunnel\r\n        );\r\n\r\n        // check if mapping is already there\r\n        require(\r\n            rootToChildToken[rootToken] == address(0x0),\r\n            \"FxMintableERC721ChildTunnel: ALREADY_MAPPED\"\r\n        );\r\n        rootToChildToken[rootToken] = childToken;\r\n        emit TokenMapped(rootToken, childToken);\r\n\r\n        // initialize child token with all parameters\r\n        FxERC721(childToken).initialize(address(this), rootToken, name, symbol);\r\n        // FxERC721(childToken).transferOwnership(msg.sender);\r\n    }\r\n\r\n    //To mint tokens on child chain\r\n    // function mintToken(\r\n    //     address childToken,\r\n    //     uint256 tokenId,\r\n    //     bytes memory data\r\n    // ) public {\r\n    //     FxERC721 childTokenContract = FxERC721(childToken);\r\n    //     // child token contract will have root token\r\n    //     address rootToken = childTokenContract.connectedToken();\r\n\r\n    //     // validate root and child token mapping\r\n    //     require(\r\n    //         childToken != address(0x0) &&\r\n    //             rootToken != address(0x0) &&\r\n    //             childToken == rootToChildToken[rootToken],\r\n    //         \"FxERC721ChildTunnel: NO_MAPPED_TOKEN\"\r\n    //     );\r\n\r\n    //     //mint token\r\n    //     childTokenContract.mint(msg.sender, tokenId, data);\r\n    // }\r\n\r\n    function withdraw(\r\n        address childToken,\r\n        uint256 tokenId,\r\n        bytes memory data\r\n    ) public {\r\n        FxERC721 childTokenContract = FxERC721(childToken);\r\n        // child token contract will have root token\r\n        address rootToken = childTokenContract.connectedToken();\r\n\r\n        // validate root and child token mapping\r\n        require(\r\n            childToken != address(0x0) &&\r\n                rootToken != address(0x0) &&\r\n                childToken == rootToChildToken[rootToken],\r\n            \"FxERC721ChildTunnel: NO_MAPPED_TOKEN\"\r\n        );\r\n\r\n        // withdraw tokens\r\n        childTokenContract.burn(tokenId);\r\n\r\n        // name, symbol\r\n        FxERC721 rootTokenContract = FxERC721(childToken);\r\n        string memory name = rootTokenContract.name();\r\n        string memory symbol = rootTokenContract.symbol();\r\n        bytes memory metaData = abi.encode(name, symbol);\r\n\r\n        // send message to root regarding token burn\r\n        // TODO: Remove\r\n        emit childToRoot(\r\n            abi.encode(\r\n                rootToken,\r\n                childToken,\r\n                msg.sender,\r\n                tokenId,\r\n                data,\r\n                metaData\r\n            )\r\n        );\r\n        _sendMessageToRoot(\r\n            abi.encode(\r\n                rootToken,\r\n                childToken,\r\n                msg.sender,\r\n                tokenId,\r\n                data,\r\n                metaData\r\n            )\r\n        );\r\n    }\r\n\r\n    function processMessageFromFLow(bytes memory data) public onlyOwner {\r\n        (\r\n            address childToken,\r\n            address to,\r\n            uint256 tokenId,\r\n            bytes memory depositData // royalty receiver should be sent from the relay and not the user\r\n        ) = abi.decode(data, (address, address, uint256, bytes));\r\n\r\n        // deposit tokens\r\n        FxERC721 childTokenContract = FxERC721(childToken);\r\n\r\n        address rootToken = childTokenContract.connectedToken();\r\n\r\n        // validate root and child token mapping\r\n        require(\r\n            childToken != address(0x0) &&\r\n                rootToken != address(0x0) &&\r\n                childToken == rootToChildToken[rootToken],\r\n            \"FxERC721ChildTunnel: NO_MAPPED_TOKEN\"\r\n        );\r\n\r\n        // childTokenContract.setApproval(true, tokenId);\r\n        childTokenContract.mint(to, tokenId, depositData);\r\n    }\r\n\r\n    function withdrawToFlow(\r\n        address childToken,\r\n        address to,\r\n        uint256 tokenId\r\n    ) public onlyOwner {\r\n        FxERC721 childTokenContract = FxERC721(childToken);\r\n\r\n        // childTokenContract.setApproval(true, tokenId);\r\n        childTokenContract.burn(tokenId);\r\n\r\n        bytes memory message = abi.encode(to, tokenId);\r\n\r\n        emit FlowDeposit(message);\r\n    }\r\n\r\n    //\r\n    // Internal methods\r\n    //\r\n\r\n    function _processMessageFromRoot(\r\n        uint256, /* stateId */\r\n        address sender,\r\n        bytes memory data\r\n    ) internal override validateSender(sender) {\r\n        // decode incoming data\r\n        (bytes32 syncType, bytes memory syncData) = abi.decode(\r\n            data,\r\n            (bytes32, bytes)\r\n        );\r\n\r\n        if (syncType == DEPOSIT) {\r\n            _syncDeposit(syncData);\r\n        } else {\r\n            revert(\"FxERC721ChildTunnel: INVALID_SYNC_TYPE\");\r\n        }\r\n    }\r\n\r\n    function _syncDeposit(bytes memory syncData) internal {\r\n        (\r\n            address rootToken,\r\n            address depositor,\r\n            address to,\r\n            uint256 tokenId,\r\n            bytes memory depositData\r\n        ) = abi.decode(syncData, (address, address, address, uint256, bytes));\r\n        address childToken = rootToChildToken[rootToken];\r\n\r\n        // deposit tokens\r\n        FxERC721 childTokenContract = FxERC721(childToken);\r\n        // childTokenContract.setApproval(true, tokenId);\r\n        childTokenContract.mint(to, tokenId, depositData);\r\n    }\r\n\r\n    function syncDeposit(address sender, bytes memory syncData) public {\r\n        _processMessageFromRoot(0, sender, syncData);\r\n    }\r\n\r\n    // check if address is contract\r\n    function _isContract(address _addr) private view returns (bool) {\r\n        uint32 size;\r\n        assembly {\r\n            size := extcodesize(_addr)\r\n        }\r\n        return (size > 0);\r\n    }\r\n}\r\n",
  "sourcePath": "C:\\Users\\Uzair\\Desktop\\workspace\\globalCopy_pulls_v2\\pons-nft\\ethereum_polygon_tests\\contracts\\FxERC721ChildTunnel.sol",
  "compiler": {
    "name": "solc",
    "version": "0.8.15+commit.e14f2714.Emscripten.clang"
  },
  "schemaVersion": "3.4.8",
  "updatedAt": "2022-08-02T09:37:32.356Z",
  "devdoc": {
    "kind": "dev",
    "methods": {
      "owner()": {
        "details": "Returns the address of the current owner."
      },
      "renounceOwnership()": {
        "details": "Leaves the contract without owner. It will not be possible to call `onlyOwner` functions anymore. Can only be called by the current owner. NOTE: Renouncing ownership will leave the contract without an owner, thereby removing any functionality that is only available to the owner."
      },
      "transferOwnership(address)": {
        "details": "Transfers ownership of the contract to a new account (`newOwner`). Can only be called by the current owner."
      }
    },
    "version": 1
  },
  "userdoc": {
    "kind": "user",
    "methods": {},
    "version": 1
  }
}