{
  "contractName": "FxERC721RootTunnel",
  "abi": [
    {
      "inputs": [
        {
          "internalType": "address",
          "name": "_checkpointManager",
          "type": "address"
        },
        {
          "internalType": "address",
          "name": "_fxRoot",
          "type": "address"
        },
        {
          "internalType": "address",
          "name": "_rootTokenTemplate",
          "type": "address"
        }
      ],
      "stateMutability": "nonpayable",
      "type": "constructor"
    },
    {
      "anonymous": false,
      "inputs": [
        {
          "indexed": false,
          "internalType": "bytes",
          "name": "data",
          "type": "bytes"
        }
      ],
      "name": "rootToChild",
      "type": "event"
    },
    {
      "inputs": [],
      "name": "DEPOSIT",
      "outputs": [
        {
          "internalType": "bytes32",
          "name": "",
          "type": "bytes32"
        }
      ],
      "stateMutability": "view",
      "type": "function"
    },
    {
      "inputs": [],
      "name": "SEND_MESSAGE_EVENT_SIG",
      "outputs": [
        {
          "internalType": "bytes32",
          "name": "",
          "type": "bytes32"
        }
      ],
      "stateMutability": "view",
      "type": "function"
    },
    {
      "inputs": [],
      "name": "checkpointManager",
      "outputs": [
        {
          "internalType": "contract ICheckpointManager",
          "name": "",
          "type": "address"
        }
      ],
      "stateMutability": "view",
      "type": "function"
    },
    {
      "inputs": [],
      "name": "childTokenTemplateCodeHash",
      "outputs": [
        {
          "internalType": "bytes32",
          "name": "",
          "type": "bytes32"
        }
      ],
      "stateMutability": "view",
      "type": "function"
    },
    {
      "inputs": [
        {
          "internalType": "bytes32",
          "name": "salt",
          "type": "bytes32"
        },
        {
          "internalType": "bytes32",
          "name": "bytecodeHash",
          "type": "bytes32"
        },
        {
          "internalType": "address",
          "name": "deployer",
          "type": "address"
        }
      ],
      "name": "computedCreate2Address",
      "outputs": [
        {
          "internalType": "address",
          "name": "",
          "type": "address"
        }
      ],
      "stateMutability": "pure",
      "type": "function"
    },
    {
      "inputs": [],
      "name": "fxChildTunnel",
      "outputs": [
        {
          "internalType": "address",
          "name": "",
          "type": "address"
        }
      ],
      "stateMutability": "view",
      "type": "function"
    },
    {
      "inputs": [],
      "name": "fxRoot",
      "outputs": [
        {
          "internalType": "contract IFxStateSender",
          "name": "",
          "type": "address"
        }
      ],
      "stateMutability": "view",
      "type": "function"
    },
    {
      "inputs": [
        {
          "internalType": "bytes32",
          "name": "",
          "type": "bytes32"
        }
      ],
      "name": "processedExits",
      "outputs": [
        {
          "internalType": "bool",
          "name": "",
          "type": "bool"
        }
      ],
      "stateMutability": "view",
      "type": "function"
    },
    {
      "inputs": [
        {
          "internalType": "bytes",
          "name": "inputData",
          "type": "bytes"
        }
      ],
      "name": "receiveMessage",
      "outputs": [],
      "stateMutability": "nonpayable",
      "type": "function"
    },
    {
      "inputs": [
        {
          "internalType": "address",
          "name": "",
          "type": "address"
        }
      ],
      "name": "rootToChildTokens",
      "outputs": [
        {
          "internalType": "address",
          "name": "",
          "type": "address"
        }
      ],
      "stateMutability": "view",
      "type": "function"
    },
    {
      "inputs": [],
      "name": "rootTokenTemplate",
      "outputs": [
        {
          "internalType": "address",
          "name": "",
          "type": "address"
        }
      ],
      "stateMutability": "view",
      "type": "function"
    },
    {
      "inputs": [
        {
          "internalType": "address",
          "name": "_fxChildTunnel",
          "type": "address"
        }
      ],
      "name": "setFxChildTunnel",
      "outputs": [],
      "stateMutability": "nonpayable",
      "type": "function"
    },
    {
      "inputs": [
        {
          "internalType": "address",
          "name": "",
          "type": "address"
        },
        {
          "internalType": "address",
          "name": "",
          "type": "address"
        },
        {
          "internalType": "uint256",
          "name": "",
          "type": "uint256"
        },
        {
          "internalType": "bytes",
          "name": "",
          "type": "bytes"
        }
      ],
      "name": "onERC721Received",
      "outputs": [
        {
          "internalType": "bytes4",
          "name": "",
          "type": "bytes4"
        }
      ],
      "stateMutability": "pure",
      "type": "function"
    },
    {
      "inputs": [
        {
          "internalType": "address",
          "name": "rootToken",
          "type": "address"
        },
        {
          "internalType": "address",
          "name": "user",
          "type": "address"
        },
        {
          "internalType": "uint256",
          "name": "tokenId",
          "type": "uint256"
        },
        {
          "internalType": "bytes",
          "name": "data",
          "type": "bytes"
        }
      ],
      "name": "deposit",
      "outputs": [],
      "stateMutability": "nonpayable",
      "type": "function"
    }
  ],
  "bytecode": "0x60806040523480156200001157600080fd5b5060405162001fc438038062001fc4833981810160405281019062000037919062000170565b828281600160006101000a81548173ffffffffffffffffffffffffffffffffffffffff021916908373ffffffffffffffffffffffffffffffffffffffff160217905550806000806101000a81548173ffffffffffffffffffffffffffffffffffffffff021916908373ffffffffffffffffffffffffffffffffffffffff160217905550505080600560006101000a81548173ffffffffffffffffffffffffffffffffffffffff021916908373ffffffffffffffffffffffffffffffffffffffff160217905550505050620001cc565b600080fd5b600073ffffffffffffffffffffffffffffffffffffffff82169050919050565b600062000138826200010b565b9050919050565b6200014a816200012b565b81146200015657600080fd5b50565b6000815190506200016a816200013f565b92915050565b6000806000606084860312156200018c576200018b62000106565b5b60006200019c8682870162000159565b9350506020620001af8682870162000159565b9250506040620001c28682870162000159565b9150509250925092565b611de880620001dc6000396000f3fe608060405234801561001057600080fd5b50600436106100ea5760003560e01c8063972c49281161008c578063d81c8e5211610066578063d81c8e5214610261578063de9b771f1461027f578063e9c670ad1461029d578063f953cec7146102b9576100ea565b8063972c492814610209578063aea4e49e14610227578063c0857ba014610243576100ea565b8063607f2d42116100c8578063607f2d421461015b57806369914b3e1461018b5780637337957f146101a957806388e70068146101d9576100ea565b80630e387de6146100ef578063150b7a021461010d5780634ddf62561461013d575b600080fd5b6100f76102d5565b6040516101049190610dfd565b60405180910390f35b61012760048036038101906101229190610f25565b6102fc565b6040516101349190610fe8565b60405180910390f35b610145610311565b6040516101529190611012565b60405180910390f35b61017560048036038101906101709190611059565b610337565b60405161018291906110a1565b60405180910390f35b610193610357565b6040516101a09190610dfd565b60405180910390f35b6101c360048036038101906101be91906110bc565b61035d565b6040516101d09190611012565b60405180910390f35b6101f360048036038101906101ee919061110f565b6103a1565b6040516102009190611012565b60405180910390f35b6102116103d4565b60405161021e9190611012565b60405180910390f35b610241600480360381019061023c919061110f565b6103fa565b005b61024b6104cf565b604051610258919061119b565b60405180910390f35b6102696104f5565b6040516102769190610dfd565b60405180910390f35b610287610519565b60405161029491906111d7565b60405180910390f35b6102b760048036038101906102b29190611333565b61053d565b005b6102d360048036038101906102ce91906113b6565b610730565b005b7f8c5261668696ce22758910d05bab8f186d6eb247ceac2af2e82c7dc17669b03660001b81565b600063150b7a0260e01b905095945050505050565b600560009054906101000a900473ffffffffffffffffffffffffffffffffffffffff1681565b60036020528060005260406000206000915054906101000a900460ff1681565b60065481565b60008060ff60f81b83868660405160200161037b94939291906114b5565b6040516020818303038152906040528051906020012090508060001c9150509392505050565b60046020528060005260406000206000915054906101000a900473ffffffffffffffffffffffffffffffffffffffff1681565b600260009054906101000a900473ffffffffffffffffffffffffffffffffffffffff1681565b600073ffffffffffffffffffffffffffffffffffffffff16600260009054906101000a900473ffffffffffffffffffffffffffffffffffffffff1673ffffffffffffffffffffffffffffffffffffffff161461048b576040517f08c379a000000000000000000000000000000000000000000000000000000000815260040161048290611586565b60405180910390fd5b80600260006101000a81548173ffffffffffffffffffffffffffffffffffffffff021916908373ffffffffffffffffffffffffffffffffffffffff16021790555050565b600160009054906101000a900473ffffffffffffffffffffffffffffffffffffffff1681565b7f87a7811f4bfedea3d341ad165680ae306b01aaeacc205d227629cf157dd9f82181565b60008054906101000a900473ffffffffffffffffffffffffffffffffffffffff1681565b600073ffffffffffffffffffffffffffffffffffffffff16600460008673ffffffffffffffffffffffffffffffffffffffff1673ffffffffffffffffffffffffffffffffffffffff16815260200190815260200160002060009054906101000a900473ffffffffffffffffffffffffffffffffffffffff1673ffffffffffffffffffffffffffffffffffffffff160361060b576040517f08c379a000000000000000000000000000000000000000000000000000000000815260040161060290611618565b60405180910390fd5b8373ffffffffffffffffffffffffffffffffffffffff1663b88d4fde333085856040518563ffffffff1660e01b815260040161064a94939291906116cf565b600060405180830381600087803b15801561066457600080fd5b505af1158015610678573d6000803e3d6000fd5b5050505060007f87a7811f4bfedea3d341ad165680ae306b01aaeacc205d227629cf157dd9f82185338686866040516020016106b895949392919061171b565b6040516020818303038152906040526040516020016106d8929190611775565b60405160208183030381529060405290507f4387ec540820a6ea01d7358e46c383e4fa00ae04ee8b483091772d15c3e563ea8160405161071891906117a5565b60405180910390a16107298161073c565b5050505050565b610739816107ee565b50565b60008054906101000a900473ffffffffffffffffffffffffffffffffffffffff1673ffffffffffffffffffffffffffffffffffffffff1663b4720477600260009054906101000a900473ffffffffffffffffffffffffffffffffffffffff16836040518363ffffffff1660e01b81526004016107b99291906117c7565b600060405180830381600087803b1580156107d357600080fd5b505af11580156107e7573d6000803e3d6000fd5b5050505050565b6000806000806000808680602001905181019061080b91906118ba565b95509550955095509550955061082086610b99565b1580156108b85750600073ffffffffffffffffffffffffffffffffffffffff16600460008873ffffffffffffffffffffffffffffffffffffffff1673ffffffffffffffffffffffffffffffffffffffff16815260200190815260200160002060009054906101000a900473ffffffffffffffffffffffffffffffffffffffff1673ffffffffffffffffffffffffffffffffffffffff16145b1561095957600080828060200190518101906108d49190611a20565b9150915060006108e5888484610bb2565b90508873ffffffffffffffffffffffffffffffffffffffff168173ffffffffffffffffffffffffffffffffffffffff1614610955576040517f08c379a000000000000000000000000000000000000000000000000000000000815260040161094c90611b0a565b60405180910390fd5b5050505b8473ffffffffffffffffffffffffffffffffffffffff16600460008873ffffffffffffffffffffffffffffffffffffffff1673ffffffffffffffffffffffffffffffffffffffff16815260200190815260200160002060009054906101000a900473ffffffffffffffffffffffffffffffffffffffff1673ffffffffffffffffffffffffffffffffffffffff1614610a26576040517f08c379a0000000000000000000000000000000000000000000000000000000008152600401610a1d90611b9c565b60405180910390fd5b60008690508073ffffffffffffffffffffffffffffffffffffffff16634f558e79856040518263ffffffff1660e01b8152600401610a649190611bbc565b602060405180830381865afa158015610a81573d6000803e3d6000fd5b505050506040513d601f19601f82011682018060405250810190610aa59190611c03565b610b1d578073ffffffffffffffffffffffffffffffffffffffff166394d008ef8686866040518463ffffffff1660e01b8152600401610ae693929190611c30565b600060405180830381600087803b158015610b0057600080fd5b505af1158015610b14573d6000803e3d6000fd5b50505050610b8f565b8073ffffffffffffffffffffffffffffffffffffffff1663b88d4fde308787876040518563ffffffff1660e01b8152600401610b5c94939291906116cf565b600060405180830381600087803b158015610b7657600080fd5b505af1158015610b8a573d6000803e3d6000fd5b505050505b5050505050505050565b600080823b905060008163ffffffff1611915050919050565b60008084604051602001610bc69190611c6e565b6040516020818303038152906040528051906020012090506000610c0c82600560009054906101000a900473ffffffffffffffffffffffffffffffffffffffff16610d09565b90508073ffffffffffffffffffffffffffffffffffffffff16632016a0d2308388886040518563ffffffff1660e01b8152600401610c4d9493929190611ccd565b600060405180830381600087803b158015610c6757600080fd5b505af1158015610c7b573d6000803e3d6000fd5b5050505085600460008373ffffffffffffffffffffffffffffffffffffffff1673ffffffffffffffffffffffffffffffffffffffff16815260200190815260200160002060006101000a81548173ffffffffffffffffffffffffffffffffffffffff021916908373ffffffffffffffffffffffffffffffffffffffff16021790555080925050509392505050565b6000808260601b90506040517f3d602d80600a3d3981f3363d3d373d3d3d363d7300000000000000000000000081528160148201527f5af43d82803e903d91602b57fd5bf300000000000000000000000000000000006028820152846037826000f5925050600073ffffffffffffffffffffffffffffffffffffffff168273ffffffffffffffffffffffffffffffffffffffff1603610ddd576040517f08c379a0000000000000000000000000000000000000000000000000000000008152600401610dd490611d92565b60405180910390fd5b5092915050565b6000819050919050565b610df781610de4565b82525050565b6000602082019050610e126000830184610dee565b92915050565b6000604051905090565b600080fd5b600080fd5b600073ffffffffffffffffffffffffffffffffffffffff82169050919050565b6000610e5782610e2c565b9050919050565b610e6781610e4c565b8114610e7257600080fd5b50565b600081359050610e8481610e5e565b92915050565b6000819050919050565b610e9d81610e8a565b8114610ea857600080fd5b50565b600081359050610eba81610e94565b92915050565b600080fd5b600080fd5b600080fd5b60008083601f840112610ee557610ee4610ec0565b5b8235905067ffffffffffffffff811115610f0257610f01610ec5565b5b602083019150836001820283011115610f1e57610f1d610eca565b5b9250929050565b600080600080600060808688031215610f4157610f40610e22565b5b6000610f4f88828901610e75565b9550506020610f6088828901610e75565b9450506040610f7188828901610eab565b935050606086013567ffffffffffffffff811115610f9257610f91610e27565b5b610f9e88828901610ecf565b92509250509295509295909350565b60007fffffffff0000000000000000000000000000000000000000000000000000000082169050919050565b610fe281610fad565b82525050565b6000602082019050610ffd6000830184610fd9565b92915050565b61100c81610e4c565b82525050565b60006020820190506110276000830184611003565b92915050565b61103681610de4565b811461104157600080fd5b50565b6000813590506110538161102d565b92915050565b60006020828403121561106f5761106e610e22565b5b600061107d84828501611044565b91505092915050565b60008115159050919050565b61109b81611086565b82525050565b60006020820190506110b66000830184611092565b92915050565b6000806000606084860312156110d5576110d4610e22565b5b60006110e386828701611044565b93505060206110f486828701611044565b925050604061110586828701610e75565b9150509250925092565b60006020828403121561112557611124610e22565b5b600061113384828501610e75565b91505092915050565b6000819050919050565b600061116161115c61115784610e2c565b61113c565b610e2c565b9050919050565b600061117382611146565b9050919050565b600061118582611168565b9050919050565b6111958161117a565b82525050565b60006020820190506111b0600083018461118c565b92915050565b60006111c182611168565b9050919050565b6111d1816111b6565b82525050565b60006020820190506111ec60008301846111c8565b92915050565b600080fd5b6000601f19601f8301169050919050565b7f4e487b7100000000000000000000000000000000000000000000000000000000600052604160045260246000fd5b611240826111f7565b810181811067ffffffffffffffff8211171561125f5761125e611208565b5b80604052505050565b6000611272610e18565b905061127e8282611237565b919050565b600067ffffffffffffffff82111561129e5761129d611208565b5b6112a7826111f7565b9050602081019050919050565b82818337600083830152505050565b60006112d66112d184611283565b611268565b9050828152602081018484840111156112f2576112f16111f2565b5b6112fd8482856112b4565b509392505050565b600082601f83011261131a57611319610ec0565b5b813561132a8482602086016112c3565b91505092915050565b6000806000806080858703121561134d5761134c610e22565b5b600061135b87828801610e75565b945050602061136c87828801610e75565b935050604061137d87828801610eab565b925050606085013567ffffffffffffffff81111561139e5761139d610e27565b5b6113aa87828801611305565b91505092959194509250565b6000602082840312156113cc576113cb610e22565b5b600082013567ffffffffffffffff8111156113ea576113e9610e27565b5b6113f684828501611305565b91505092915050565b60007fff0000000000000000000000000000000000000000000000000000000000000082169050919050565b6000819050919050565b611446611441826113ff565b61142b565b82525050565b60008160601b9050919050565b60006114648261144c565b9050919050565b600061147682611459565b9050919050565b61148e61148982610e4c565b61146b565b82525050565b6000819050919050565b6114af6114aa82610de4565b611494565b82525050565b60006114c18287611435565b6001820191506114d1828661147d565b6014820191506114e1828561149e565b6020820191506114f1828461149e565b60208201915081905095945050505050565b600082825260208201905092915050565b7f467842617365526f6f7454756e6e656c3a204348494c445f54554e4e454c5f4160008201527f4c52454144595f53455400000000000000000000000000000000000000000000602082015250565b6000611570602a83611503565b915061157b82611514565b604082019050919050565b6000602082019050818103600083015261159f81611563565b9050919050565b7f46784d696e7461626c65455243373231526f6f7454756e6e656c3a204e4f5f4d60008201527f415050494e475f464f554e440000000000000000000000000000000000000000602082015250565b6000611602602c83611503565b915061160d826115a6565b604082019050919050565b60006020820190508181036000830152611631816115f5565b9050919050565b61164181610e8a565b82525050565b600081519050919050565b600082825260208201905092915050565b60005b83811015611681578082015181840152602081019050611666565b83811115611690576000848401525b50505050565b60006116a182611647565b6116ab8185611652565b93506116bb818560208601611663565b6116c4816111f7565b840191505092915050565b60006080820190506116e46000830187611003565b6116f16020830186611003565b6116fe6040830185611638565b81810360608301526117108184611696565b905095945050505050565b600060a0820190506117306000830188611003565b61173d6020830187611003565b61174a6040830186611003565b6117576060830185611638565b81810360808301526117698184611696565b90509695505050505050565b600060408201905061178a6000830185610dee565b818103602083015261179c8184611696565b90509392505050565b600060208201905081810360008301526117bf8184611696565b905092915050565b60006040820190506117dc6000830185611003565b81810360208301526117ee8184611696565b90509392505050565b600061180282610e2c565b9050919050565b611812816117f7565b811461181d57600080fd5b50565b60008151905061182f81611809565b92915050565b60008151905061184481610e94565b92915050565b600061185d61185884611283565b611268565b905082815260208101848484011115611879576118786111f2565b5b611884848285611663565b509392505050565b600082601f8301126118a1576118a0610ec0565b5b81516118b184826020860161184a565b91505092915050565b60008060008060008060c087890312156118d7576118d6610e22565b5b60006118e589828a01611820565b96505060206118f689828a01611820565b955050604061190789828a01611820565b945050606061191889828a01611835565b935050608087015167ffffffffffffffff81111561193957611938610e27565b5b61194589828a0161188c565b92505060a087015167ffffffffffffffff81111561196657611965610e27565b5b61197289828a0161188c565b9150509295509295509295565b600067ffffffffffffffff82111561199a57611999611208565b5b6119a3826111f7565b9050602081019050919050565b60006119c36119be8461197f565b611268565b9050828152602081018484840111156119df576119de6111f2565b5b6119ea848285611663565b509392505050565b600082601f830112611a0757611a06610ec0565b5b8151611a178482602086016119b0565b91505092915050565b60008060408385031215611a3757611a36610e22565b5b600083015167ffffffffffffffff811115611a5557611a54610e27565b5b611a61858286016119f2565b925050602083015167ffffffffffffffff811115611a8257611a81610e27565b5b611a8e858286016119f2565b9150509250929050565b7f46784d696e7461626c65455243373231526f6f7454756e6e656c3a20524f4f5460008201527f5f544f4b454e5f4352454154494f4e5f4d49534d415443480000000000000000602082015250565b6000611af4603883611503565b9150611aff82611a98565b604082019050919050565b60006020820190508181036000830152611b2381611ae7565b9050919050565b7f4678455243373231526f6f7454756e6e656c3a20494e56414c49445f4d41505060008201527f494e475f4f4e5f45584954000000000000000000000000000000000000000000602082015250565b6000611b86602b83611503565b9150611b9182611b2a565b604082019050919050565b60006020820190508181036000830152611bb581611b79565b9050919050565b6000602082019050611bd16000830184611638565b92915050565b611be081611086565b8114611beb57600080fd5b50565b600081519050611bfd81611bd7565b92915050565b600060208284031215611c1957611c18610e22565b5b6000611c2784828501611bee565b91505092915050565b6000606082019050611c456000830186611003565b611c526020830185611638565b8181036040830152611c648184611696565b9050949350505050565b6000611c7a828461147d565b60148201915081905092915050565b600081519050919050565b6000611c9f82611c89565b611ca98185611503565b9350611cb9818560208601611663565b611cc2816111f7565b840191505092915050565b6000608082019050611ce26000830187611003565b611cef6020830186611003565b8181036040830152611d018185611c94565b90508181036060830152611d158184611c94565b905095945050505050565b7f437265617465323a204661696c6564206f6e206d696e696d616c206465706c6f60008201527f7900000000000000000000000000000000000000000000000000000000000000602082015250565b6000611d7c602183611503565b9150611d8782611d20565b604082019050919050565b60006020820190508181036000830152611dab81611d6f565b905091905056fea2646970667358221220a8a62acd5e0800fe78016d5fedb3084902f2c50b7bf71dd7a8277113bc99c69b64736f6c634300080f0033",
  "immutableReferences": {},
  "source": "// SPDX-License-Identifier: MIT\r\n//different contract for tests\r\n\r\npragma solidity ^0.8.0;\r\n\r\nimport {FxBaseRootTunnel} from \"./FxBaseRootTunnel.sol\";\r\nimport {Create2} from \"./Create2.sol\";\r\nimport {FxERC721} from \"./FxERC721.sol\";\r\nimport {IERC721Receiver} from \"./IERC721Receiver.sol\";\r\n/**\r\n * @title FxERC721RootTunnel\r\n */\r\ncontract FxERC721RootTunnel is FxBaseRootTunnel, Create2, IERC721Receiver {\r\n    // maybe DEPOSIT and MAP_TOKEN can be reduced to bytes4\r\n    bytes32 public constant DEPOSIT = keccak256(\"DEPOSIT\");\r\n    //bytes32 public constant MAP_TOKEN = keccak256(\"MAP_TOKEN\");\r\n\r\n    mapping(address => address) public rootToChildTokens;\r\n    address public rootTokenTemplate;\r\n    bytes32 public childTokenTemplateCodeHash;\r\n\r\n    constructor(\r\n        address _checkpointManager,\r\n        address _fxRoot,\r\n        address _rootTokenTemplate\r\n    ) FxBaseRootTunnel(_checkpointManager, _fxRoot) {\r\n        rootTokenTemplate = _rootTokenTemplate;\r\n    }\r\n\r\n    function onERC721Received(\r\n        address, /* operator */\r\n        address, /* from */\r\n        uint256, /* tokenId */\r\n        bytes calldata /* data */\r\n    ) external pure override returns (bytes4) {\r\n        return this.onERC721Received.selector;\r\n    }\r\n    \r\n    // TODO: Remove\r\n    event rootToChild(bytes data);\r\n\r\n    // before calling, need to prompt user to accept adding us as approved owner from js \r\n    function deposit(\r\n        address rootToken,\r\n        address user,\r\n        uint256 tokenId,\r\n        bytes memory data\r\n    ) public {\r\n        // map token if not mapped\r\n        require(rootToChildTokens[rootToken] != address(0x0), \"FxMintableERC721RootTunnel: NO_MAPPING_FOUND\");\r\n\r\n        // transfer from depositor to this contract\r\n        FxERC721(rootToken).safeTransferFrom(\r\n            msg.sender, // depositor\r\n            address(this), // manager contract\r\n            tokenId,\r\n            data\r\n        );\r\n  \r\n        // DEPOSIT, encode(rootToken, depositor, user, tokenId, extra data)\r\n        bytes memory message = abi.encode(DEPOSIT, abi.encode(rootToken, msg.sender, user, tokenId, data));\r\n        // TODO: Remove\r\n        emit rootToChild(message);\r\n        _sendMessageToChild(message);\r\n    }\r\n\r\n    // exit processor\r\n    function _processMessageFromChild(bytes memory data) internal override {\r\n        (address rootToken, address childToken, address to, uint256 tokenId, bytes memory syncData, bytes memory metaData) = abi.decode(\r\n            data,\r\n            (address, address, address, uint256, bytes, bytes)\r\n        );\r\n\r\n        // if root token is not available, create it\r\n        if (!_isContract(rootToken) && rootToChildTokens[rootToken] == address(0x0)) {\r\n            (string memory name, string memory symbol) = abi.decode(metaData, (string, string));\r\n\r\n            address _createdToken = _deployRootToken(childToken, name, symbol);\r\n            require(_createdToken == rootToken, \"FxMintableERC721RootTunnel: ROOT_TOKEN_CREATION_MISMATCH\");\r\n        }\r\n\r\n        // validate mapping for root to child\r\n        require(rootToChildTokens[rootToken] == childToken, \"FxERC721RootTunnel: INVALID_MAPPING_ON_EXIT\");\r\n\r\n        FxERC721 tokenObj = FxERC721(rootToken);\r\n\r\n        //approve token transfer\r\n        if (!tokenObj.exists(tokenId)) {\r\n            // FxERC721(rootToken).setApproval(true, tokenId);\r\n            tokenObj.mint(to, tokenId, syncData);\r\n        } else {\r\n            // transfer from tokens\r\n            tokenObj.safeTransferFrom(\r\n                address(this),\r\n                to,\r\n                tokenId,\r\n                syncData\r\n            );\r\n        }\r\n    }\r\n\r\n    function _deployRootToken(\r\n        address childToken,\r\n        string memory name,\r\n        string memory symbol\r\n    ) internal returns (address) {\r\n        // deploy new root token\r\n        bytes32 salt = keccak256(abi.encodePacked(childToken));\r\n        address rootToken = createClone(salt, rootTokenTemplate);\r\n        FxERC721(rootToken).initialize(address(this), rootToken, name, symbol);\r\n        // FxERC721(rootToken).transferOwnership(msg.sender);\r\n\r\n        // add into mapped tokens\r\n        rootToChildTokens[rootToken] = childToken;\r\n\r\n        return rootToken;\r\n    }\r\n\r\n    // check if address is contract\r\n    function _isContract(address _addr) private view returns (bool) {\r\n        uint32 size;\r\n        assembly {\r\n            size := extcodesize(_addr)\r\n        }\r\n        return (size > 0);\r\n    }\r\n}",
  "sourcePath": "C:\\Users\\Uzair\\Desktop\\workspace\\globalCopy_pulls_v2\\pons-nft\\ethereum_polygon_tests\\contracts\\FxERC721RootTunnel.sol",
  "compiler": {
    "name": "solc",
    "version": "0.8.15+commit.e14f2714.Emscripten.clang"
  },
  "schemaVersion": "3.4.8",
  "updatedAt": "2022-08-02T09:37:32.387Z",
  "devdoc": {
    "kind": "dev",
    "methods": {
      "receiveMessage(bytes)": {
        "details": "This function verifies if the transaction actually happened on child chain",
        "params": {
          "inputData": "RLP encoded data of the reference tx containing following list of fields  0 - headerNumber - Checkpoint header block number containing the reference tx  1 - blockProof - Proof that the block header (in the child chain) is a leaf in the submitted merkle root  2 - blockNumber - Block number containing the reference tx on child chain  3 - blockTime - Reference tx block time  4 - txRoot - Transactions root of block  5 - receiptRoot - Receipts root of block  6 - receipt - Receipt of the reference transaction  7 - receiptProof - Merkle proof of the reference receipt  8 - branchMask - 32 bits denoting the path of receipt in merkle tree  9 - receiptLogIndex - Log Index to read from the receipt"
        }
      }
    },
    "title": "FxERC721RootTunnel",
    "version": 1
  },
  "userdoc": {
    "kind": "user",
    "methods": {
      "receiveMessage(bytes)": {
        "notice": "receive message from  L2 to L1, validated by proof"
      }
    },
    "version": 1
  }
}