{
  "contractName": "FxERC721",
  "abi": [
    {
      "anonymous": false,
      "inputs": [
        {
          "indexed": true,
          "internalType": "address",
          "name": "owner",
          "type": "address"
        },
        {
          "indexed": true,
          "internalType": "address",
          "name": "approved",
          "type": "address"
        },
        {
          "indexed": true,
          "internalType": "uint256",
          "name": "tokenId",
          "type": "uint256"
        }
      ],
      "name": "Approval",
      "type": "event"
    },
    {
      "anonymous": false,
      "inputs": [
        {
          "indexed": true,
          "internalType": "address",
          "name": "owner",
          "type": "address"
        },
        {
          "indexed": true,
          "internalType": "address",
          "name": "operator",
          "type": "address"
        },
        {
          "indexed": false,
          "internalType": "bool",
          "name": "approved",
          "type": "bool"
        }
      ],
      "name": "ApprovalForAll",
      "type": "event"
    },
    {
      "anonymous": false,
      "inputs": [
        {
          "indexed": true,
          "internalType": "address",
          "name": "from",
          "type": "address"
        },
        {
          "indexed": true,
          "internalType": "address",
          "name": "to",
          "type": "address"
        },
        {
          "indexed": true,
          "internalType": "uint256",
          "name": "tokenId",
          "type": "uint256"
        }
      ],
      "name": "Transfer",
      "type": "event"
    },
    {
      "inputs": [
        {
          "internalType": "address",
          "name": "to",
          "type": "address"
        },
        {
          "internalType": "uint256",
          "name": "tokenId",
          "type": "uint256"
        }
      ],
      "name": "approve",
      "outputs": [],
      "stateMutability": "nonpayable",
      "type": "function"
    },
    {
      "inputs": [
        {
          "internalType": "address",
          "name": "owner",
          "type": "address"
        }
      ],
      "name": "balanceOf",
      "outputs": [
        {
          "internalType": "uint256",
          "name": "",
          "type": "uint256"
        }
      ],
      "stateMutability": "view",
      "type": "function"
    },
    {
      "inputs": [
        {
          "internalType": "uint256",
          "name": "tokenId",
          "type": "uint256"
        }
      ],
      "name": "getApproved",
      "outputs": [
        {
          "internalType": "address",
          "name": "",
          "type": "address"
        }
      ],
      "stateMutability": "view",
      "type": "function"
    },
    {
      "inputs": [
        {
          "internalType": "address",
          "name": "owner",
          "type": "address"
        },
        {
          "internalType": "address",
          "name": "operator",
          "type": "address"
        }
      ],
      "name": "isApprovedForAll",
      "outputs": [
        {
          "internalType": "bool",
          "name": "",
          "type": "bool"
        }
      ],
      "stateMutability": "view",
      "type": "function"
    },
    {
      "inputs": [],
      "name": "name",
      "outputs": [
        {
          "internalType": "string",
          "name": "",
          "type": "string"
        }
      ],
      "stateMutability": "view",
      "type": "function"
    },
    {
      "inputs": [
        {
          "internalType": "uint256",
          "name": "tokenId",
          "type": "uint256"
        }
      ],
      "name": "ownerOf",
      "outputs": [
        {
          "internalType": "address",
          "name": "",
          "type": "address"
        }
      ],
      "stateMutability": "view",
      "type": "function"
    },
    {
      "inputs": [
        {
          "internalType": "uint256",
          "name": "_tokenId",
          "type": "uint256"
        },
        {
          "internalType": "uint256",
          "name": "_salePrice",
          "type": "uint256"
        }
      ],
      "name": "royaltyInfo",
      "outputs": [
        {
          "internalType": "address",
          "name": "",
          "type": "address"
        },
        {
          "internalType": "uint256",
          "name": "",
          "type": "uint256"
        }
      ],
      "stateMutability": "view",
      "type": "function"
    },
    {
      "inputs": [
        {
          "internalType": "address",
          "name": "from",
          "type": "address"
        },
        {
          "internalType": "address",
          "name": "to",
          "type": "address"
        },
        {
          "internalType": "uint256",
          "name": "tokenId",
          "type": "uint256"
        }
      ],
      "name": "safeTransferFrom",
      "outputs": [],
      "stateMutability": "nonpayable",
      "type": "function"
    },
    {
      "inputs": [
        {
          "internalType": "address",
          "name": "from",
          "type": "address"
        },
        {
          "internalType": "address",
          "name": "to",
          "type": "address"
        },
        {
          "internalType": "uint256",
          "name": "tokenId",
          "type": "uint256"
        },
        {
          "internalType": "bytes",
          "name": "_data",
          "type": "bytes"
        }
      ],
      "name": "safeTransferFrom",
      "outputs": [],
      "stateMutability": "nonpayable",
      "type": "function"
    },
    {
      "inputs": [
        {
          "internalType": "address",
          "name": "operator",
          "type": "address"
        },
        {
          "internalType": "bool",
          "name": "approved",
          "type": "bool"
        }
      ],
      "name": "setApprovalForAll",
      "outputs": [],
      "stateMutability": "nonpayable",
      "type": "function"
    },
    {
      "inputs": [],
      "name": "symbol",
      "outputs": [
        {
          "internalType": "string",
          "name": "",
          "type": "string"
        }
      ],
      "stateMutability": "view",
      "type": "function"
    },
    {
      "inputs": [
        {
          "internalType": "uint256",
          "name": "index",
          "type": "uint256"
        }
      ],
      "name": "tokenByIndex",
      "outputs": [
        {
          "internalType": "uint256",
          "name": "",
          "type": "uint256"
        }
      ],
      "stateMutability": "view",
      "type": "function"
    },
    {
      "inputs": [
        {
          "internalType": "address",
          "name": "owner",
          "type": "address"
        },
        {
          "internalType": "uint256",
          "name": "index",
          "type": "uint256"
        }
      ],
      "name": "tokenOfOwnerByIndex",
      "outputs": [
        {
          "internalType": "uint256",
          "name": "",
          "type": "uint256"
        }
      ],
      "stateMutability": "view",
      "type": "function"
    },
    {
      "inputs": [],
      "name": "totalSupply",
      "outputs": [
        {
          "internalType": "uint256",
          "name": "",
          "type": "uint256"
        }
      ],
      "stateMutability": "view",
      "type": "function"
    },
    {
      "inputs": [
        {
          "internalType": "address",
          "name": "from",
          "type": "address"
        },
        {
          "internalType": "address",
          "name": "to",
          "type": "address"
        },
        {
          "internalType": "uint256",
          "name": "tokenId",
          "type": "uint256"
        }
      ],
      "name": "transferFrom",
      "outputs": [],
      "stateMutability": "nonpayable",
      "type": "function"
    },
    {
      "inputs": [
        {
          "internalType": "address",
          "name": "fxManager_",
          "type": "address"
        },
        {
          "internalType": "address",
          "name": "connectedToken_",
          "type": "address"
        },
        {
          "internalType": "string",
          "name": "name_",
          "type": "string"
        },
        {
          "internalType": "string",
          "name": "symbol_",
          "type": "string"
        }
      ],
      "name": "initialize",
      "outputs": [],
      "stateMutability": "nonpayable",
      "type": "function"
    },
    {
      "inputs": [],
      "name": "fxManager",
      "outputs": [
        {
          "internalType": "address",
          "name": "",
          "type": "address"
        }
      ],
      "stateMutability": "view",
      "type": "function"
    },
    {
      "inputs": [],
      "name": "connectedToken",
      "outputs": [
        {
          "internalType": "address",
          "name": "",
          "type": "address"
        }
      ],
      "stateMutability": "view",
      "type": "function"
    },
    {
      "inputs": [
        {
          "internalType": "string",
          "name": "_name",
          "type": "string"
        },
        {
          "internalType": "string",
          "name": "_symbol",
          "type": "string"
        }
      ],
      "name": "setupMetaData",
      "outputs": [],
      "stateMutability": "nonpayable",
      "type": "function"
    },
    {
      "inputs": [
        {
          "internalType": "uint256",
          "name": "tokenId",
          "type": "uint256"
        }
      ],
      "name": "exists",
      "outputs": [
        {
          "internalType": "bool",
          "name": "",
          "type": "bool"
        }
      ],
      "stateMutability": "view",
      "type": "function"
    },
    {
      "inputs": [
        {
          "internalType": "bytes4",
          "name": "interfaceId",
          "type": "bytes4"
        }
      ],
      "name": "supportsInterface",
      "outputs": [
        {
          "internalType": "bool",
          "name": "",
          "type": "bool"
        }
      ],
      "stateMutability": "view",
      "type": "function"
    },
    {
      "inputs": [
        {
          "internalType": "uint256",
          "name": "tokenId",
          "type": "uint256"
        }
      ],
      "name": "tokenURI",
      "outputs": [
        {
          "internalType": "string",
          "name": "",
          "type": "string"
        }
      ],
      "stateMutability": "view",
      "type": "function"
    },
    {
      "inputs": [
        {
          "internalType": "address",
          "name": "user",
          "type": "address"
        },
        {
          "internalType": "uint256",
          "name": "tokenId",
          "type": "uint256"
        },
        {
          "internalType": "bytes",
          "name": "_data",
          "type": "bytes"
        }
      ],
      "name": "mint",
      "outputs": [],
      "stateMutability": "nonpayable",
      "type": "function"
    },
    {
      "inputs": [
        {
          "internalType": "uint256",
          "name": "tokenId",
          "type": "uint256"
        }
      ],
      "name": "burn",
      "outputs": [],
      "stateMutability": "nonpayable",
      "type": "function"
    }
  ],
  "bytecode": "0x608060405234801561001057600080fd5b5061477f806100206000396000f3fe608060405234801561001057600080fd5b50600436106101585760003560e01c806342966c68116100c357806395d89b411161007c57806395d89b41146103fc5780639b7791531461041a578063a22cb46514610438578063b88d4fde14610454578063c87b56dd14610470578063e985e9c5146104a057610158565b806342966c68146103045780634f558e79146103205780634f6ccce7146103505780636352211e1461038057806370a08231146103b057806394d008ef146103e057610158565b80632016a0d2116101155780632016a0d21461023357806323b872dd1461024f5780632a55205a1461026b5780632f745c591461029c5780633d30498f146102cc57806342842e0e146102e857610158565b806301ffc9a71461015d57806306fdde031461018d578063081812fc146101ab578063095ea7b3146101db5780630a8a4914146101f757806318160ddd14610215575b600080fd5b61017760048036038101906101729190612b5c565b6104d0565b6040516101849190612ba4565b60405180910390f35b610195610502565b6040516101a29190612c58565b60405180910390f35b6101c560048036038101906101c09190612cb0565b610594565b6040516101d29190612d1e565b60405180910390f35b6101f560048036038101906101f09190612d65565b610619565b005b6101ff61078b565b60405161020c9190612d1e565b60405180910390f35b61021d6107b5565b60405161022a9190612db4565b60405180910390f35b61024d60048036038101906102489190612f04565b6107c2565b005b61026960048036038101906102649190612fa3565b61093f565b005b61028560048036038101906102809190612ff6565b61099f565b604051610293929190613036565b60405180910390f35b6102b660048036038101906102b19190612d65565b610b89565b6040516102c39190612db4565b60405180910390f35b6102e660048036038101906102e1919061305f565b610c2e565b005b61030260048036038101906102fd9190612fa3565b610ccc565b005b61031e60048036038101906103199190612cb0565b610cec565b005b61033a60048036038101906103359190612cb0565b610dd7565b6040516103479190612ba4565b60405180910390f35b61036a60048036038101906103659190612cb0565b610de9565b6040516103779190612db4565b60405180910390f35b61039a60048036038101906103959190612cb0565b610e5a565b6040516103a79190612d1e565b60405180910390f35b6103ca60048036038101906103c591906130d7565b610f0b565b6040516103d79190612db4565b60405180910390f35b6103fa60048036038101906103f591906131a5565b610fc2565b005b610404611098565b6040516104119190612c58565b60405180910390f35b61042261112a565b60405161042f9190612d1e565b60405180910390f35b610452600480360381019061044d9190613240565b611154565b005b61046e60048036038101906104699190613280565b6112d4565b005b61048a60048036038101906104859190612cb0565b611336565b6040516104979190612c58565b60405180910390f35b6104ba60048036038101906104b59190613303565b611348565b6040516104c79190612ba4565b60405180910390f35b60006104db826113dc565b806104eb57506104ea826113ee565b5b806104fb57506104fa82611468565b5b9050919050565b60606002805461051190613372565b80601f016020809104026020016040519081016040528092919081815260200182805461053d90613372565b801561058a5780601f1061055f5761010080835404028352916020019161058a565b820191906000526020600020905b81548152906001019060200180831161056d57829003601f168201915b5050505050905090565b600061059f8261154a565b6105de576040517f08c379a00000000000000000000000000000000000000000000000000000000081526004016105d590613415565b60405180910390fd5b6006600083815260200190815260200160002060009054906101000a900473ffffffffffffffffffffffffffffffffffffffff169050919050565b600061062482610e5a565b90508073ffffffffffffffffffffffffffffffffffffffff168373ffffffffffffffffffffffffffffffffffffffff1603610694576040517f08c379a000000000000000000000000000000000000000000000000000000000815260040161068b906134a7565b60405180910390fd5b8073ffffffffffffffffffffffffffffffffffffffff166106b36115b6565b73ffffffffffffffffffffffffffffffffffffffff1614806106e257506106e1816106dc6115b6565b611348565b5b610721576040517f08c379a000000000000000000000000000000000000000000000000000000000815260040161071890613539565b60405180910390fd5b61072b83836115be565b818373ffffffffffffffffffffffffffffffffffffffff168273ffffffffffffffffffffffffffffffffffffffff167f8c5be1e5ebec7d5bd14f71427d1e84f3dd0314c0f7b2291e5b200ac8c7c3b92560405160405180910390a4505050565b6000600e60009054906101000a900473ffffffffffffffffffffffffffffffffffffffff16905090565b6000600a80549050905090565b600073ffffffffffffffffffffffffffffffffffffffff16600d60009054906101000a900473ffffffffffffffffffffffffffffffffffffffff1673ffffffffffffffffffffffffffffffffffffffff1614801561086e5750600073ffffffffffffffffffffffffffffffffffffffff16600e60009054906101000a900473ffffffffffffffffffffffffffffffffffffffff1673ffffffffffffffffffffffffffffffffffffffff16145b6108ad576040517f08c379a00000000000000000000000000000000000000000000000000000000081526004016108a4906135a5565b60405180910390fd5b83600d60006101000a81548173ffffffffffffffffffffffffffffffffffffffff021916908373ffffffffffffffffffffffffffffffffffffffff16021790555082600e60006101000a81548173ffffffffffffffffffffffffffffffffffffffff021916908373ffffffffffffffffffffffffffffffffffffffff1602179055506109398282610c2e565b50505050565b61095061094a6115b6565b82611614565b61098f576040517f08c379a000000000000000000000000000000000000000000000000000000000815260040161098690613637565b60405180910390fd5b61099a8383836116f2565b505050565b6000806000600160008681526020019081526020016000206040518060400160405290816000820160009054906101000a900473ffffffffffffffffffffffffffffffffffffffff1673ffffffffffffffffffffffffffffffffffffffff1673ffffffffffffffffffffffffffffffffffffffff1681526020016000820160149054906101000a90046bffffffffffffffffffffffff166bffffffffffffffffffffffff166bffffffffffffffffffffffff16815250509050600073ffffffffffffffffffffffffffffffffffffffff16816000015173ffffffffffffffffffffffffffffffffffffffff1603610b345760006040518060400160405290816000820160009054906101000a900473ffffffffffffffffffffffffffffffffffffffff1673ffffffffffffffffffffffffffffffffffffffff1673ffffffffffffffffffffffffffffffffffffffff1681526020016000820160149054906101000a90046bffffffffffffffffffffffff166bffffffffffffffffffffffff166bffffffffffffffffffffffff168152505090505b6000610b3e6119b1565b6bffffffffffffffffffffffff1682602001516bffffffffffffffffffffffff1686610b6a9190613686565b610b74919061370f565b90508160000151819350935050509250929050565b6000610b9483610f0b565b8210610bd5576040517f08c379a0000000000000000000000000000000000000000000000000000000008152600401610bcc906137b2565b60405180910390fd5b600860008473ffffffffffffffffffffffffffffffffffffffff1673ffffffffffffffffffffffffffffffffffffffff168152602001908152602001600020600083815260200190815260200160002054905092915050565b600d60009054906101000a900473ffffffffffffffffffffffffffffffffffffffff1673ffffffffffffffffffffffffffffffffffffffff163373ffffffffffffffffffffffffffffffffffffffff1614610cbe576040517f08c379a0000000000000000000000000000000000000000000000000000000008152600401610cb59061381e565b60405180910390fd5b610cc882826119bb565b5050565b610ce7838383604051806020016040528060008152506112d4565b505050565b600d60009054906101000a900473ffffffffffffffffffffffffffffffffffffffff1673ffffffffffffffffffffffffffffffffffffffff163373ffffffffffffffffffffffffffffffffffffffff1614610d7c576040517f08c379a0000000000000000000000000000000000000000000000000000000008152600401610d739061381e565b60405180910390fd5b60011515610d8982610dd7565b151514610dcb576040517f08c379a0000000000000000000000000000000000000000000000000000000008152600401610dc2906138b0565b60405180910390fd5b610dd4816119df565b50565b6000610de28261154a565b9050919050565b6000610df36107b5565b8210610e34576040517f08c379a0000000000000000000000000000000000000000000000000000000008152600401610e2b90613942565b60405180910390fd5b600a8281548110610e4857610e47613962565b5b90600052602060002001549050919050565b6000806004600084815260200190815260200160002060009054906101000a900473ffffffffffffffffffffffffffffffffffffffff169050600073ffffffffffffffffffffffffffffffffffffffff168173ffffffffffffffffffffffffffffffffffffffff1603610f02576040517f08c379a0000000000000000000000000000000000000000000000000000000008152600401610ef990613a03565b60405180910390fd5b80915050919050565b60008073ffffffffffffffffffffffffffffffffffffffff168273ffffffffffffffffffffffffffffffffffffffff1603610f7b576040517f08c379a0000000000000000000000000000000000000000000000000000000008152600401610f7290613a95565b60405180910390fd5b600560008373ffffffffffffffffffffffffffffffffffffffff1673ffffffffffffffffffffffffffffffffffffffff168152602001908152602001600020549050919050565b600d60009054906101000a900473ffffffffffffffffffffffffffffffffffffffff1673ffffffffffffffffffffffffffffffffffffffff163373ffffffffffffffffffffffffffffffffffffffff1614611052576040517f08c379a00000000000000000000000000000000000000000000000000000000081526004016110499061381e565b60405180910390fd5b60008060008380602001905181019061106b9190613ba7565b92509250925061107b86866119fd565b6110858584611a1b565b611090858383611a88565b505050505050565b6060600380546110a790613372565b80601f01602080910402602001604051908101604052809291908181526020018280546110d390613372565b80156111205780601f106110f557610100808354040283529160200191611120565b820191906000526020600020905b81548152906001019060200180831161110357829003601f168201915b5050505050905090565b6000600d60009054906101000a900473ffffffffffffffffffffffffffffffffffffffff16905090565b61115c6115b6565b73ffffffffffffffffffffffffffffffffffffffff168273ffffffffffffffffffffffffffffffffffffffff16036111c9576040517f08c379a00000000000000000000000000000000000000000000000000000000081526004016111c090613c62565b60405180910390fd5b80600760006111d66115b6565b73ffffffffffffffffffffffffffffffffffffffff1673ffffffffffffffffffffffffffffffffffffffff16815260200190815260200160002060008473ffffffffffffffffffffffffffffffffffffffff1673ffffffffffffffffffffffffffffffffffffffff16815260200190815260200160002060006101000a81548160ff0219169083151502179055508173ffffffffffffffffffffffffffffffffffffffff166112836115b6565b73ffffffffffffffffffffffffffffffffffffffff167f17307eab39ab6107e8899845ad3d59bd9653f200f220920489ca2b5937696c31836040516112c89190612ba4565b60405180910390a35050565b6112e56112df6115b6565b83611614565b611324576040517f08c379a000000000000000000000000000000000000000000000000000000000815260040161131b90613637565b60405180910390fd5b61133084848484611c2f565b50505050565b606061134182611c8b565b9050919050565b6000600760008473ffffffffffffffffffffffffffffffffffffffff1673ffffffffffffffffffffffffffffffffffffffff16815260200190815260200160002060008373ffffffffffffffffffffffffffffffffffffffff1673ffffffffffffffffffffffffffffffffffffffff16815260200190815260200160002060009054906101000a900460ff16905092915050565b60006113e7826113ee565b9050919050565b60007f780e9d63000000000000000000000000000000000000000000000000000000007bffffffffffffffffffffffffffffffffffffffffffffffffffffffff1916827bffffffffffffffffffffffffffffffffffffffffffffffffffffffff19161480611461575061146082611468565b5b9050919050565b60007f80ac58cd000000000000000000000000000000000000000000000000000000007bffffffffffffffffffffffffffffffffffffffffffffffffffffffff1916827bffffffffffffffffffffffffffffffffffffffffffffffffffffffff1916148061153357507f5b5e139f000000000000000000000000000000000000000000000000000000007bffffffffffffffffffffffffffffffffffffffffffffffffffffffff1916827bffffffffffffffffffffffffffffffffffffffffffffffffffffffff1916145b80611543575061154282611ddc565b5b9050919050565b60008073ffffffffffffffffffffffffffffffffffffffff166004600084815260200190815260200160002060009054906101000a900473ffffffffffffffffffffffffffffffffffffffff1673ffffffffffffffffffffffffffffffffffffffff1614159050919050565b600033905090565b816006600083815260200190815260200160002060006101000a81548173ffffffffffffffffffffffffffffffffffffffff021916908373ffffffffffffffffffffffffffffffffffffffff1602179055505050565b600061161f8261154a565b61165e576040517f08c379a000000000000000000000000000000000000000000000000000000000815260040161165590613cf4565b60405180910390fd5b600061166983610e5a565b90508073ffffffffffffffffffffffffffffffffffffffff168473ffffffffffffffffffffffffffffffffffffffff1614806116d857508373ffffffffffffffffffffffffffffffffffffffff166116c084610594565b73ffffffffffffffffffffffffffffffffffffffff16145b806116e957506116e88185611348565b5b91505092915050565b8273ffffffffffffffffffffffffffffffffffffffff1661171282610e5a565b73ffffffffffffffffffffffffffffffffffffffff1614611768576040517f08c379a000000000000000000000000000000000000000000000000000000000815260040161175f90613d86565b60405180910390fd5b600073ffffffffffffffffffffffffffffffffffffffff168273ffffffffffffffffffffffffffffffffffffffff16036117d7576040517f08c379a00000000000000000000000000000000000000000000000000000000081526004016117ce90613e18565b60405180910390fd5b6117e2838383611e56565b6117ed6000826115be565b80600073ffffffffffffffffffffffffffffffffffffffff1661180f83610e5a565b73ffffffffffffffffffffffffffffffffffffffff167f8c5be1e5ebec7d5bd14f71427d1e84f3dd0314c0f7b2291e5b200ac8c7c3b92560405160405180910390a46001600560008573ffffffffffffffffffffffffffffffffffffffff1673ffffffffffffffffffffffffffffffffffffffff16815260200190815260200160002060008282546118a19190613e38565b925050819055506001600560008473ffffffffffffffffffffffffffffffffffffffff1673ffffffffffffffffffffffffffffffffffffffff16815260200190815260200160002060008282546118f89190613e6c565b92505081905550816004600083815260200190815260200160002060006101000a81548173ffffffffffffffffffffffffffffffffffffffff021916908373ffffffffffffffffffffffffffffffffffffffff160217905550808273ffffffffffffffffffffffffffffffffffffffff168473ffffffffffffffffffffffffffffffffffffffff167fddf252ad1be2c89b69c2b068fc378daa952ba7f163c4a11628f55a4df523b3ef60405160405180910390a4505050565b6000612710905090565b81600290816119ca919061406e565b5080600390816119da919061406e565b505050565b6119e881611e66565b6119f181611f77565b6119fa81611f83565b50565b611a17828260405180602001604052806000815250611fcd565b5050565b611a248261154a565b611a63576040517f08c379a0000000000000000000000000000000000000000000000000000000008152600401611a5a906141b2565b60405180910390fd5b80600c60008481526020019081526020016000209081611a83919061406e565b505050565b611a906119b1565b6bffffffffffffffffffffffff16816bffffffffffffffffffffffff161115611aee576040517f08c379a0000000000000000000000000000000000000000000000000000000008152600401611ae590614244565b60405180910390fd5b600073ffffffffffffffffffffffffffffffffffffffff168273ffffffffffffffffffffffffffffffffffffffff1603611b5d576040517f08c379a0000000000000000000000000000000000000000000000000000000008152600401611b54906142b0565b60405180910390fd5b60405180604001604052808373ffffffffffffffffffffffffffffffffffffffff168152602001826bffffffffffffffffffffffff168152506001600085815260200190815260200160002060008201518160000160006101000a81548173ffffffffffffffffffffffffffffffffffffffff021916908373ffffffffffffffffffffffffffffffffffffffff16021790555060208201518160000160146101000a8154816bffffffffffffffffffffffff02191690836bffffffffffffffffffffffff160217905550905050505050565b611c3a8484846116f2565b611c4684848484612028565b611c85576040517f08c379a0000000000000000000000000000000000000000000000000000000008152600401611c7c90614342565b60405180910390fd5b50505050565b6060611c968261154a565b611cd5576040517f08c379a0000000000000000000000000000000000000000000000000000000008152600401611ccc906143d4565b60405180910390fd5b6000600c60008481526020019081526020016000208054611cf590613372565b80601f0160208091040260200160405190810160405280929190818152602001828054611d2190613372565b8015611d6e5780601f10611d4357610100808354040283529160200191611d6e565b820191906000526020600020905b815481529060010190602001808311611d5157829003601f168201915b505050505090506000611d7f6121af565b90506000815103611d94578192505050611dd7565b600082511115611dc9578082604051602001611db1929190614430565b60405160208183030381529060405292505050611dd7565b611dd2846121c6565b925050505b919050565b60007f2a55205a000000000000000000000000000000000000000000000000000000007bffffffffffffffffffffffffffffffffffffffffffffffffffffffff1916827bffffffffffffffffffffffffffffffffffffffffffffffffffffffff19161480611e4f5750611e4e8261226d565b5b9050919050565b611e618383836122d7565b505050565b6000611e7182610e5a565b9050611e7f81600084611e56565b611e8a6000836115be565b6001600560008373ffffffffffffffffffffffffffffffffffffffff1673ffffffffffffffffffffffffffffffffffffffff1681526020019081526020016000206000828254611eda9190613e38565b925050819055506004600083815260200190815260200160002060006101000a81549073ffffffffffffffffffffffffffffffffffffffff021916905581600073ffffffffffffffffffffffffffffffffffffffff168273ffffffffffffffffffffffffffffffffffffffff167fddf252ad1be2c89b69c2b068fc378daa952ba7f163c4a11628f55a4df523b3ef60405160405180910390a45050565b611f80816123e9565b50565b6000600c60008381526020019081526020016000208054611fa390613372565b905014611fca57600c60008281526020019081526020016000206000611fc99190612a93565b5b50565b611fd78383612448565b611fe46000848484612028565b612023576040517f08c379a000000000000000000000000000000000000000000000000000000000815260040161201a90614342565b60405180910390fd5b505050565b60006120498473ffffffffffffffffffffffffffffffffffffffff16612615565b156121a2578373ffffffffffffffffffffffffffffffffffffffff1663150b7a026120726115b6565b8786866040518563ffffffff1660e01b815260040161209494939291906144a9565b6020604051808303816000875af19250505080156120d057506040513d601f19601f820116820180604052508101906120cd919061450a565b60015b612152573d8060008114612100576040519150601f19603f3d011682016040523d82523d6000602084013e612105565b606091505b50600081510361214a576040517f08c379a000000000000000000000000000000000000000000000000000000000815260040161214190614342565b60405180910390fd5b805181602001fd5b63150b7a0260e01b7bffffffffffffffffffffffffffffffffffffffffffffffffffffffff1916817bffffffffffffffffffffffffffffffffffffffffffffffffffffffff1916149150506121a7565b600190505b949350505050565b606060405180602001604052806000815250905090565b60606121d18261154a565b612210576040517f08c379a0000000000000000000000000000000000000000000000000000000008152600401612207906145a9565b60405180910390fd5b600061221a6121af565b9050600081511161223a5760405180602001604052806000815250612265565b8061224484612628565b604051602001612255929190614430565b6040516020818303038152906040525b915050919050565b60007f01ffc9a7000000000000000000000000000000000000000000000000000000007bffffffffffffffffffffffffffffffffffffffffffffffffffffffff1916827bffffffffffffffffffffffffffffffffffffffffffffffffffffffff1916149050919050565b6122e2838383612788565b600073ffffffffffffffffffffffffffffffffffffffff168373ffffffffffffffffffffffffffffffffffffffff16036123245761231f8161278d565b612363565b8173ffffffffffffffffffffffffffffffffffffffff168373ffffffffffffffffffffffffffffffffffffffff16146123625761236183826127d6565b5b5b600073ffffffffffffffffffffffffffffffffffffffff168273ffffffffffffffffffffffffffffffffffffffff16036123a5576123a081612943565b6123e4565b8273ffffffffffffffffffffffffffffffffffffffff168273ffffffffffffffffffffffffffffffffffffffff16146123e3576123e28282612a14565b5b5b505050565b60016000828152602001908152602001600020600080820160006101000a81549073ffffffffffffffffffffffffffffffffffffffff02191690556000820160146101000a8154906bffffffffffffffffffffffff0219169055505050565b600073ffffffffffffffffffffffffffffffffffffffff168273ffffffffffffffffffffffffffffffffffffffff16036124b7576040517f08c379a00000000000000000000000000000000000000000000000000000000081526004016124ae90614615565b60405180910390fd5b6124c08161154a565b15612500576040517f08c379a00000000000000000000000000000000000000000000000000000000081526004016124f790614681565b60405180910390fd5b61250c60008383611e56565b6001600560008473ffffffffffffffffffffffffffffffffffffffff1673ffffffffffffffffffffffffffffffffffffffff168152602001908152602001600020600082825461255c9190613e6c565b92505081905550816004600083815260200190815260200160002060006101000a81548173ffffffffffffffffffffffffffffffffffffffff021916908373ffffffffffffffffffffffffffffffffffffffff160217905550808273ffffffffffffffffffffffffffffffffffffffff16600073ffffffffffffffffffffffffffffffffffffffff167fddf252ad1be2c89b69c2b068fc378daa952ba7f163c4a11628f55a4df523b3ef60405160405180910390a45050565b600080823b905060008111915050919050565b60606000820361266f576040518060400160405280600181526020017f30000000000000000000000000000000000000000000000000000000000000008152509050612783565b600082905060005b600082146126a157808061268a906146a1565b915050600a8261269a919061370f565b9150612677565b60008167ffffffffffffffff8111156126bd576126bc612dd9565b5b6040519080825280601f01601f1916602001820160405280156126ef5781602001600182028036833780820191505090505b5090505b6000851461277c576001826127089190613e38565b9150600a8561271791906146e9565b60306127239190613e6c565b60f81b81838151811061273957612738613962565b5b60200101907effffffffffffffffffffffffffffffffffffffffffffffffffffffffffffff1916908160001a905350600a85612775919061370f565b94506126f3565b8093505050505b919050565b505050565b600a80549050600b600083815260200190815260200160002081905550600a81908060018154018082558091505060019003906000526020600020016000909190919091505550565b600060016127e384610f0b565b6127ed9190613e38565b90506000600960008481526020019081526020016000205490508181146128d2576000600860008673ffffffffffffffffffffffffffffffffffffffff1673ffffffffffffffffffffffffffffffffffffffff168152602001908152602001600020600084815260200190815260200160002054905080600860008773ffffffffffffffffffffffffffffffffffffffff1673ffffffffffffffffffffffffffffffffffffffff168152602001908152602001600020600084815260200190815260200160002081905550816009600083815260200190815260200160002081905550505b6009600084815260200190815260200160002060009055600860008573ffffffffffffffffffffffffffffffffffffffff1673ffffffffffffffffffffffffffffffffffffffff16815260200190815260200160002060008381526020019081526020016000206000905550505050565b60006001600a805490506129579190613e38565b90506000600b60008481526020019081526020016000205490506000600a838154811061298757612986613962565b5b9060005260206000200154905080600a83815481106129a9576129a8613962565b5b906000526020600020018190555081600b600083815260200190815260200160002081905550600b600085815260200190815260200160002060009055600a8054806129f8576129f761471a565b5b6001900381819060005260206000200160009055905550505050565b6000612a1f83610f0b565b905081600860008573ffffffffffffffffffffffffffffffffffffffff1673ffffffffffffffffffffffffffffffffffffffff168152602001908152602001600020600083815260200190815260200160002081905550806009600084815260200190815260200160002081905550505050565b508054612a9f90613372565b6000825580601f10612ab15750612ad0565b601f016020900490600052602060002090810190612acf9190612ad3565b5b50565b5b80821115612aec576000816000905550600101612ad4565b5090565b6000604051905090565b600080fd5b600080fd5b60007fffffffff0000000000000000000000000000000000000000000000000000000082169050919050565b612b3981612b04565b8114612b4457600080fd5b50565b600081359050612b5681612b30565b92915050565b600060208284031215612b7257612b71612afa565b5b6000612b8084828501612b47565b91505092915050565b60008115159050919050565b612b9e81612b89565b82525050565b6000602082019050612bb96000830184612b95565b92915050565b600081519050919050565b600082825260208201905092915050565b60005b83811015612bf9578082015181840152602081019050612bde565b83811115612c08576000848401525b50505050565b6000601f19601f8301169050919050565b6000612c2a82612bbf565b612c348185612bca565b9350612c44818560208601612bdb565b612c4d81612c0e565b840191505092915050565b60006020820190508181036000830152612c728184612c1f565b905092915050565b6000819050919050565b612c8d81612c7a565b8114612c9857600080fd5b50565b600081359050612caa81612c84565b92915050565b600060208284031215612cc657612cc5612afa565b5b6000612cd484828501612c9b565b91505092915050565b600073ffffffffffffffffffffffffffffffffffffffff82169050919050565b6000612d0882612cdd565b9050919050565b612d1881612cfd565b82525050565b6000602082019050612d336000830184612d0f565b92915050565b612d4281612cfd565b8114612d4d57600080fd5b50565b600081359050612d5f81612d39565b92915050565b60008060408385031215612d7c57612d7b612afa565b5b6000612d8a85828601612d50565b9250506020612d9b85828601612c9b565b9150509250929050565b612dae81612c7a565b82525050565b6000602082019050612dc96000830184612da5565b92915050565b600080fd5b600080fd5b7f4e487b7100000000000000000000000000000000000000000000000000000000600052604160045260246000fd5b612e1182612c0e565b810181811067ffffffffffffffff82111715612e3057612e2f612dd9565b5b80604052505050565b6000612e43612af0565b9050612e4f8282612e08565b919050565b600067ffffffffffffffff821115612e6f57612e6e612dd9565b5b612e7882612c0e565b9050602081019050919050565b82818337600083830152505050565b6000612ea7612ea284612e54565b612e39565b905082815260208101848484011115612ec357612ec2612dd4565b5b612ece848285612e85565b509392505050565b600082601f830112612eeb57612eea612dcf565b5b8135612efb848260208601612e94565b91505092915050565b60008060008060808587031215612f1e57612f1d612afa565b5b6000612f2c87828801612d50565b9450506020612f3d87828801612d50565b935050604085013567ffffffffffffffff811115612f5e57612f5d612aff565b5b612f6a87828801612ed6565b925050606085013567ffffffffffffffff811115612f8b57612f8a612aff565b5b612f9787828801612ed6565b91505092959194509250565b600080600060608486031215612fbc57612fbb612afa565b5b6000612fca86828701612d50565b9350506020612fdb86828701612d50565b9250506040612fec86828701612c9b565b9150509250925092565b6000806040838503121561300d5761300c612afa565b5b600061301b85828601612c9b565b925050602061302c85828601612c9b565b9150509250929050565b600060408201905061304b6000830185612d0f565b6130586020830184612da5565b9392505050565b6000806040838503121561307657613075612afa565b5b600083013567ffffffffffffffff81111561309457613093612aff565b5b6130a085828601612ed6565b925050602083013567ffffffffffffffff8111156130c1576130c0612aff565b5b6130cd85828601612ed6565b9150509250929050565b6000602082840312156130ed576130ec612afa565b5b60006130fb84828501612d50565b91505092915050565b600067ffffffffffffffff82111561311f5761311e612dd9565b5b61312882612c0e565b9050602081019050919050565b600061314861314384613104565b612e39565b90508281526020810184848401111561316457613163612dd4565b5b61316f848285612e85565b509392505050565b600082601f83011261318c5761318b612dcf565b5b813561319c848260208601613135565b91505092915050565b6000806000606084860312156131be576131bd612afa565b5b60006131cc86828701612d50565b93505060206131dd86828701612c9b565b925050604084013567ffffffffffffffff8111156131fe576131fd612aff565b5b61320a86828701613177565b9150509250925092565b61321d81612b89565b811461322857600080fd5b50565b60008135905061323a81613214565b92915050565b6000806040838503121561325757613256612afa565b5b600061326585828601612d50565b92505060206132768582860161322b565b9150509250929050565b6000806000806080858703121561329a57613299612afa565b5b60006132a887828801612d50565b94505060206132b987828801612d50565b93505060406132ca87828801612c9b565b925050606085013567ffffffffffffffff8111156132eb576132ea612aff565b5b6132f787828801613177565b91505092959194509250565b6000806040838503121561331a57613319612afa565b5b600061332885828601612d50565b925050602061333985828601612d50565b9150509250929050565b7f4e487b7100000000000000000000000000000000000000000000000000000000600052602260045260246000fd5b6000600282049050600182168061338a57607f821691505b60208210810361339d5761339c613343565b5b50919050565b7f4552433732313a20617070726f76656420717565727920666f72206e6f6e657860008201527f697374656e7420746f6b656e0000000000000000000000000000000000000000602082015250565b60006133ff602c83612bca565b915061340a826133a3565b604082019050919050565b6000602082019050818103600083015261342e816133f2565b9050919050565b7f4552433732313a20617070726f76616c20746f2063757272656e74206f776e6560008201527f7200000000000000000000000000000000000000000000000000000000000000602082015250565b6000613491602183612bca565b915061349c82613435565b604082019050919050565b600060208201905081810360008301526134c081613484565b9050919050565b7f4552433732313a20617070726f76652063616c6c6572206973206e6f74206f7760008201527f6e6572206e6f7220617070726f76656420666f7220616c6c0000000000000000602082015250565b6000613523603883612bca565b915061352e826134c7565b604082019050919050565b6000602082019050818103600083015261355281613516565b9050919050565b7f546f6b656e20697320616c726561647920696e697469616c697a656400000000600082015250565b600061358f601c83612bca565b915061359a82613559565b602082019050919050565b600060208201905081810360008301526135be81613582565b9050919050565b7f4552433732313a207472616e736665722063616c6c6572206973206e6f74206f60008201527f776e6572206e6f7220617070726f766564000000000000000000000000000000602082015250565b6000613621603183612bca565b915061362c826135c5565b604082019050919050565b6000602082019050818103600083015261365081613614565b9050919050565b7f4e487b7100000000000000000000000000000000000000000000000000000000600052601160045260246000fd5b600061369182612c7a565b915061369c83612c7a565b9250817fffffffffffffffffffffffffffffffffffffffffffffffffffffffffffffffff04831182151516156136d5576136d4613657565b5b828202905092915050565b7f4e487b7100000000000000000000000000000000000000000000000000000000600052601260045260246000fd5b600061371a82612c7a565b915061372583612c7a565b925082613735576137346136e0565b5b828204905092915050565b7f455243373231456e756d657261626c653a206f776e657220696e646578206f7560008201527f74206f6620626f756e6473000000000000000000000000000000000000000000602082015250565b600061379c602b83612bca565b91506137a782613740565b604082019050919050565b600060208201905081810360008301526137cb8161378f565b9050919050565b7f496e76616c69642073656e646572000000000000000000000000000000000000600082015250565b6000613808600e83612bca565b9150613813826137d2565b602082019050919050565b60006020820190508181036000830152613837816137fb565b9050919050565b7f546f6b656e20646f6573206e6f74206578697374206f6e20506f6c79676f6e2060008201527f636861696e000000000000000000000000000000000000000000000000000000602082015250565b600061389a602583612bca565b91506138a58261383e565b604082019050919050565b600060208201905081810360008301526138c98161388d565b9050919050565b7f455243373231456e756d657261626c653a20676c6f62616c20696e646578206f60008201527f7574206f6620626f756e64730000000000000000000000000000000000000000602082015250565b600061392c602c83612bca565b9150613937826138d0565b604082019050919050565b6000602082019050818103600083015261395b8161391f565b9050919050565b7f4e487b7100000000000000000000000000000000000000000000000000000000600052603260045260246000fd5b7f4552433732313a206f776e657220717565727920666f72206e6f6e657869737460008201527f656e7420746f6b656e0000000000000000000000000000000000000000000000602082015250565b60006139ed602983612bca565b91506139f882613991565b604082019050919050565b60006020820190508181036000830152613a1c816139e0565b9050919050565b7f4552433732313a2062616c616e636520717565727920666f7220746865207a6560008201527f726f206164647265737300000000000000000000000000000000000000000000602082015250565b6000613a7f602a83612bca565b9150613a8a82613a23565b604082019050919050565b60006020820190508181036000830152613aae81613a72565b9050919050565b6000613ac8613ac384612e54565b612e39565b905082815260208101848484011115613ae457613ae3612dd4565b5b613aef848285612bdb565b509392505050565b600082601f830112613b0c57613b0b612dcf565b5b8151613b1c848260208601613ab5565b91505092915050565b6000613b3082612cdd565b9050919050565b613b4081613b25565b8114613b4b57600080fd5b50565b600081519050613b5d81613b37565b92915050565b60006bffffffffffffffffffffffff82169050919050565b613b8481613b63565b8114613b8f57600080fd5b50565b600081519050613ba181613b7b565b92915050565b600080600060608486031215613bc057613bbf612afa565b5b600084015167ffffffffffffffff811115613bde57613bdd612aff565b5b613bea86828701613af7565b9350506020613bfb86828701613b4e565b9250506040613c0c86828701613b92565b9150509250925092565b7f4552433732313a20617070726f766520746f2063616c6c657200000000000000600082015250565b6000613c4c601983612bca565b9150613c5782613c16565b602082019050919050565b60006020820190508181036000830152613c7b81613c3f565b9050919050565b7f4552433732313a206f70657261746f7220717565727920666f72206e6f6e657860008201527f697374656e7420746f6b656e0000000000000000000000000000000000000000602082015250565b6000613cde602c83612bca565b9150613ce982613c82565b604082019050919050565b60006020820190508181036000830152613d0d81613cd1565b9050919050565b7f4552433732313a207472616e73666572206f6620746f6b656e2074686174206960008201527f73206e6f74206f776e0000000000000000000000000000000000000000000000602082015250565b6000613d70602983612bca565b9150613d7b82613d14565b604082019050919050565b60006020820190508181036000830152613d9f81613d63565b9050919050565b7f4552433732313a207472616e7366657220746f20746865207a65726f2061646460008201527f7265737300000000000000000000000000000000000000000000000000000000602082015250565b6000613e02602483612bca565b9150613e0d82613da6565b604082019050919050565b60006020820190508181036000830152613e3181613df5565b9050919050565b6000613e4382612c7a565b9150613e4e83612c7a565b925082821015613e6157613e60613657565b5b828203905092915050565b6000613e7782612c7a565b9150613e8283612c7a565b9250827fffffffffffffffffffffffffffffffffffffffffffffffffffffffffffffffff03821115613eb757613eb6613657565b5b828201905092915050565b60008190508160005260206000209050919050565b60006020601f8301049050919050565b600082821b905092915050565b600060088302613f247fffffffffffffffffffffffffffffffffffffffffffffffffffffffffffffffff82613ee7565b613f2e8683613ee7565b95508019841693508086168417925050509392505050565b6000819050919050565b6000613f6b613f66613f6184612c7a565b613f46565b612c7a565b9050919050565b6000819050919050565b613f8583613f50565b613f99613f9182613f72565b848454613ef4565b825550505050565b600090565b613fae613fa1565b613fb9818484613f7c565b505050565b5b81811015613fdd57613fd2600082613fa6565b600181019050613fbf565b5050565b601f82111561402257613ff381613ec2565b613ffc84613ed7565b8101602085101561400b578190505b61401f61401785613ed7565b830182613fbe565b50505b505050565b600082821c905092915050565b600061404560001984600802614027565b1980831691505092915050565b600061405e8383614034565b9150826002028217905092915050565b61407782612bbf565b67ffffffffffffffff8111156140905761408f612dd9565b5b61409a8254613372565b6140a5828285613fe1565b600060209050601f8311600181146140d857600084156140c6578287015190505b6140d08582614052565b865550614138565b601f1984166140e686613ec2565b60005b8281101561410e578489015182556001820191506020850194506020810190506140e9565b8683101561412b5784890151614127601f891682614034565b8355505b6001600288020188555050505b505050505050565b7f45524337323155524953746f726167653a2055524920736574206f66206e6f6e60008201527f6578697374656e7420746f6b656e000000000000000000000000000000000000602082015250565b600061419c602e83612bca565b91506141a782614140565b604082019050919050565b600060208201905081810360008301526141cb8161418f565b9050919050565b7f455243323938313a20726f79616c7479206665652077696c6c2065786365656460008201527f2073616c65507269636500000000000000000000000000000000000000000000602082015250565b600061422e602a83612bca565b9150614239826141d2565b604082019050919050565b6000602082019050818103600083015261425d81614221565b9050919050565b7f455243323938313a20496e76616c696420706172616d65746572730000000000600082015250565b600061429a601b83612bca565b91506142a582614264565b602082019050919050565b600060208201905081810360008301526142c98161428d565b9050919050565b7f4552433732313a207472616e7366657220746f206e6f6e20455243373231526560008201527f63656976657220696d706c656d656e7465720000000000000000000000000000602082015250565b600061432c603283612bca565b9150614337826142d0565b604082019050919050565b6000602082019050818103600083015261435b8161431f565b9050919050565b7f45524337323155524953746f726167653a2055524920717565727920666f722060008201527f6e6f6e6578697374656e7420746f6b656e000000000000000000000000000000602082015250565b60006143be603183612bca565b91506143c982614362565b604082019050919050565b600060208201905081810360008301526143ed816143b1565b9050919050565b600081905092915050565b600061440a82612bbf565b61441481856143f4565b9350614424818560208601612bdb565b80840191505092915050565b600061443c82856143ff565b915061444882846143ff565b91508190509392505050565b600081519050919050565b600082825260208201905092915050565b600061447b82614454565b614485818561445f565b9350614495818560208601612bdb565b61449e81612c0e565b840191505092915050565b60006080820190506144be6000830187612d0f565b6144cb6020830186612d0f565b6144d86040830185612da5565b81810360608301526144ea8184614470565b905095945050505050565b60008151905061450481612b30565b92915050565b6000602082840312156145205761451f612afa565b5b600061452e848285016144f5565b91505092915050565b7f4552433732314d657461646174613a2055524920717565727920666f72206e6f60008201527f6e6578697374656e7420746f6b656e0000000000000000000000000000000000602082015250565b6000614593602f83612bca565b915061459e82614537565b604082019050919050565b600060208201905081810360008301526145c281614586565b9050919050565b7f4552433732313a206d696e7420746f20746865207a65726f2061646472657373600082015250565b60006145ff602083612bca565b915061460a826145c9565b602082019050919050565b6000602082019050818103600083015261462e816145f2565b9050919050565b7f4552433732313a20746f6b656e20616c7265616479206d696e74656400000000600082015250565b600061466b601c83612bca565b915061467682614635565b602082019050919050565b6000602082019050818103600083015261469a8161465e565b9050919050565b60006146ac82612c7a565b91507fffffffffffffffffffffffffffffffffffffffffffffffffffffffffffffffff82036146de576146dd613657565b5b600182019050919050565b60006146f482612c7a565b91506146ff83612c7a565b92508261470f5761470e6136e0565b5b828206905092915050565b7f4e487b7100000000000000000000000000000000000000000000000000000000600052603160045260246000fdfea26469706673582212208dfb1b492a55c302fb7e226a395dfb92049d8300bd33341d6a7f25db6ba4201c64736f6c634300080f0033",
  "immutableReferences": {},
  "source": "// SPDX-License-Identifier: MIT\r\n// different contract for tests\r\n\r\npragma solidity ^0.8.0;\r\n\r\nimport {IFxERC721} from \"./IFxERC721.sol\";\r\nimport \"./ERC721Royalty.sol\";\r\nimport \"./ERC721URIStorage.sol\";\r\nimport \"./ERC721Enumerable.sol\";\r\n\r\n/**\r\n * @title FxERC20 represents fx erc20\r\n */\r\ncontract FxERC721 is\r\n    IFxERC721,\r\n    ERC721,\r\n    ERC721Enumerable,\r\n    ERC721URIStorage,\r\n    ERC721Royalty\r\n{\r\n    address internal _fxManager;\r\n    address internal _connectedToken;\r\n\r\n    // // TODO: Needs to be implemented correctly based on what we get from flow\r\n    // struct EventInformation {\r\n    //     bool approved;\r\n    // }\r\n\r\n    // mapping(uint256 => EventInformation) private _EventInfo;\r\n\r\n    // // TODO: Needs to be implemented correctly based on what we get from flow\r\n    // function setApproval(bool approval, uint256 tokenId) public {\r\n    //     require(msg.sender == _fxManager, \"Invalid sender\");\r\n    //     _EventInfo[tokenId].approved = approval;\r\n    // }\r\n\r\n    function initialize(\r\n        address fxManager_,\r\n        address connectedToken_,\r\n        string memory name_,\r\n        string memory symbol_\r\n    ) public override {\r\n        require(\r\n            _fxManager == address(0x0) && _connectedToken == address(0x0),\r\n            \"Token is already initialized\"\r\n        );\r\n        _fxManager = fxManager_;\r\n        _connectedToken = connectedToken_;\r\n\r\n        // setup meta data\r\n        setupMetaData(name_, symbol_);\r\n    }\r\n\r\n    function _baseURI()\r\n        internal\r\n        view\r\n        virtual\r\n        override(ERC721, ERC721URIStorage)\r\n        returns (string memory)\r\n    {\r\n        return \"\";\r\n    }\r\n\r\n    function _beforeTokenTransfer(\r\n        address from,\r\n        address to,\r\n        uint256 tokenId\r\n    ) internal virtual override(ERC721, ERC721Enumerable) {\r\n        super._beforeTokenTransfer(from, to, tokenId);\r\n    }\r\n\r\n    // fxManager returns fx manager\r\n    function fxManager() public view override returns (address) {\r\n        return _fxManager;\r\n    }\r\n\r\n    // connectedToken returns root token\r\n    function connectedToken() public view override returns (address) {\r\n        return _connectedToken;\r\n    }\r\n\r\n    // setup name, symbol\r\n    function setupMetaData(string memory _name, string memory _symbol) public {\r\n        require(msg.sender == _fxManager, \"Invalid sender\");\r\n        _setupMetaData(_name, _symbol);\r\n    }\r\n\r\n    function exists(uint256 tokenId) public view returns (bool) {\r\n        return _exists(tokenId);\r\n    }\r\n\r\n    function supportsInterface(bytes4 interfaceId)\r\n        public\r\n        view\r\n        virtual\r\n        override(IERC165, ERC721, ERC721Enumerable, ERC721Royalty)\r\n        returns (bool)\r\n    {\r\n        return\r\n            ERC721Royalty.supportsInterface(interfaceId) ||\r\n            ERC721Enumerable.supportsInterface(interfaceId) ||\r\n            ERC721.supportsInterface(interfaceId);\r\n    }\r\n\r\n    function tokenURI(uint256 tokenId)\r\n        public\r\n        view\r\n        virtual\r\n        override(ERC721, ERC721URIStorage)\r\n        returns (string memory)\r\n    {\r\n        return ERC721URIStorage.tokenURI(tokenId);\r\n    }\r\n\r\n    function mint(\r\n        address user,\r\n        uint256 tokenId,\r\n        bytes memory _data\r\n    ) public override {\r\n        require(msg.sender == _fxManager, \"Invalid sender\");\r\n        // string memory tokenUri = \"QmcRXwGFhEBGsV6DMioaHPKXAxnTcStDfdP1zV86z5sXCz\";\r\n        // address royaltyReceiver = user;\r\n        // uint96 royaltyNumerator = 100;\r\n        // // TODO: Needs to be implemented correctly based on what we get from flow\r\n        // require(\r\n        //     _EventInfo[tokenId].approved == true,\r\n        //     \"Token not approved for minting on polygon Blockchain\"\r\n        // );\r\n\r\n        // TODO: Fix this based on the actual struct\r\n        (\r\n            string memory tokenUri,\r\n            address royaltyReceiver,\r\n            uint96 royaltyNumerator\r\n        ) = abi.decode(_data, (string, address, uint96));\r\n        _safeMint(user, tokenId);\r\n        _setTokenURI(tokenId, tokenUri);\r\n        _setTokenRoyalty(tokenId, royaltyReceiver, royaltyNumerator);\r\n        // delete _EventInfo[tokenId];\r\n    }\r\n\r\n    function _burn(uint256 tokenId)\r\n        internal\r\n        virtual\r\n        override(ERC721, ERC721URIStorage, ERC721Royalty)\r\n    {\r\n        ERC721._burn(tokenId);\r\n        ERC721Royalty._burn(tokenId);\r\n        ERC721URIStorage._burn(tokenId);\r\n    }\r\n\r\n    function burn(uint256 tokenId) public override {\r\n        require(msg.sender == _fxManager, \"Invalid sender\");\r\n\r\n        require(\r\n            exists(tokenId) == true,\r\n            \"Token does not exist on Polygon chain\"\r\n        );\r\n        // // TODO: Needs to be implemented correctly based on what we get from flow\r\n        // require(\r\n        //     _EventInfo[tokenId].approved == true,\r\n        //     \"Token not approved for burning on polygon Blockchain\"\r\n        // );\r\n\r\n        _burn(tokenId);\r\n        // delete _EventInfo[tokenId];\r\n    }\r\n}\r\n",
  "sourcePath": "/mnt/c/Users/Uzair/Desktop/workspace/globalCopy_pulls_v2/pons-nft/ethereum_polygon_tests/contracts/FxERC721.sol",
  "compiler": {
    "name": "solc",
    "version": "0.8.15+commit.e14f2714.Emscripten.clang"
  },
  "schemaVersion": "3.4.8",
  "updatedAt": "2022-08-04T03:26:19.926Z",
  "devdoc": {
    "kind": "dev",
    "methods": {
      "approve(address,uint256)": {
        "details": "See {IERC721-approve}."
      },
      "balanceOf(address)": {
        "details": "See {IERC721-balanceOf}."
      },
      "getApproved(uint256)": {
        "details": "See {IERC721-getApproved}."
      },
      "isApprovedForAll(address,address)": {
        "details": "See {IERC721-isApprovedForAll}."
      },
      "name()": {
        "details": "See {IERC721Metadata-name}."
      },
      "ownerOf(uint256)": {
        "details": "See {IERC721-ownerOf}."
      },
      "royaltyInfo(uint256,uint256)": {
        "details": "Returns how much royalty is owed and to whom, based on a sale price that may be denominated in any unit of exchange. The royalty amount is denominated and should be paid in that same unit of exchange."
      },
      "safeTransferFrom(address,address,uint256)": {
        "details": "See {IERC721-safeTransferFrom}."
      },
      "safeTransferFrom(address,address,uint256,bytes)": {
        "details": "See {IERC721-safeTransferFrom}."
      },
      "setApprovalForAll(address,bool)": {
        "details": "See {IERC721-setApprovalForAll}."
      },
      "symbol()": {
        "details": "See {IERC721Metadata-symbol}."
      },
      "tokenByIndex(uint256)": {
        "details": "See {IERC721Enumerable-tokenByIndex}."
      },
      "tokenOfOwnerByIndex(address,uint256)": {
        "details": "See {IERC721Enumerable-tokenOfOwnerByIndex}."
      },
      "totalSupply()": {
        "details": "See {IERC721Enumerable-totalSupply}."
      },
      "transferFrom(address,address,uint256)": {
        "details": "See {IERC721-transferFrom}."
      }
    },
    "title": "FxERC20 represents fx erc20",
    "version": 1
  },
  "userdoc": {
    "kind": "user",
    "methods": {},
    "version": 1
  }
}