{
  "contractName": "FxRoot",
  "abi": [
    {
      "inputs": [],
      "name": "fxChild",
      "outputs": [
        {
          "internalType": "address",
          "name": "",
          "type": "address"
        }
      ],
      "stateMutability": "view",
      "type": "function"
    },
    {
      "inputs": [],
      "name": "stateSender",
      "outputs": [
        {
          "internalType": "contract IStateSender",
          "name": "",
          "type": "address"
        }
      ],
      "stateMutability": "view",
      "type": "function"
    },
    {
      "inputs": [
        {
          "internalType": "address",
          "name": "_fxChild",
          "type": "address"
        }
      ],
      "name": "setFxChild",
      "outputs": [],
      "stateMutability": "nonpayable",
      "type": "function"
    },
    {
      "inputs": [
        {
          "internalType": "address",
          "name": "_receiver",
          "type": "address"
        },
        {
          "internalType": "bytes",
          "name": "_data",
          "type": "bytes"
        }
      ],
      "name": "sendMessageToChild",
      "outputs": [],
      "stateMutability": "nonpayable",
      "type": "function"
    }
  ],
  "bytecode": "0x608060405234801561001057600080fd5b506104b0806100206000396000f3fe608060405234801561001057600080fd5b506004361061004c5760003560e01c8063450d11f014610051578063b47204771461006f578063b86cfdcf1461008b578063cb10f94c146100a7575b600080fd5b6100596100c5565b604051610066919061021f565b60405180910390f35b610089600480360381019061008491906102d5565b6100eb565b005b6100a560048036038101906100a09190610335565b61011b565b005b6100af6101ba565b6040516100bc91906103c1565b60405180910390f35b600160009054906101000a900473ffffffffffffffffffffffffffffffffffffffff1681565b600033848484604051602001610104949392919061043a565b604051602081830303815290604052905050505050565b600073ffffffffffffffffffffffffffffffffffffffff16600160009054906101000a900473ffffffffffffffffffffffffffffffffffffffff1673ffffffffffffffffffffffffffffffffffffffff161461017657600080fd5b80600160006101000a81548173ffffffffffffffffffffffffffffffffffffffff021916908373ffffffffffffffffffffffffffffffffffffffff16021790555050565b60008054906101000a900473ffffffffffffffffffffffffffffffffffffffff1681565b600073ffffffffffffffffffffffffffffffffffffffff82169050919050565b6000610209826101de565b9050919050565b610219816101fe565b82525050565b60006020820190506102346000830184610210565b92915050565b600080fd5b600080fd5b61024d816101fe565b811461025857600080fd5b50565b60008135905061026a81610244565b92915050565b600080fd5b600080fd5b600080fd5b60008083601f84011261029557610294610270565b5b8235905067ffffffffffffffff8111156102b2576102b1610275565b5b6020830191508360018202830111156102ce576102cd61027a565b5b9250929050565b6000806000604084860312156102ee576102ed61023a565b5b60006102fc8682870161025b565b935050602084013567ffffffffffffffff81111561031d5761031c61023f565b5b6103298682870161027f565b92509250509250925092565b60006020828403121561034b5761034a61023a565b5b60006103598482850161025b565b91505092915050565b6000819050919050565b600061038761038261037d846101de565b610362565b6101de565b9050919050565b60006103998261036c565b9050919050565b60006103ab8261038e565b9050919050565b6103bb816103a0565b82525050565b60006020820190506103d660008301846103b2565b92915050565b600082825260208201905092915050565b82818337600083830152505050565b6000601f19601f8301169050919050565b600061041983856103dc565b93506104268385846103ed565b61042f836103fc565b840190509392505050565b600060608201905061044f6000830187610210565b61045c6020830186610210565b818103604083015261046f81848661040d565b90509594505050505056fea264697066735822122080432e59bed8b78a71d6cae23fcba7cfa3a6edf1b2fc2c350a46d65723fb9bbb64736f6c634300080f0033",
  "immutableReferences": {},
  "source": "/**\r\n *Submitted for verification at Etherscan.io on 2021-01-17\r\n */\r\n\r\n// SPDX-License-Identifier: MIT\r\npragma solidity >0.7.3;\r\n\r\ninterface IStateSender {\r\n    function syncState(address receiver, bytes calldata data) external;\r\n}\r\n\r\ninterface IFxStateSender {\r\n    function sendMessageToChild(address _receiver, bytes calldata _data)\r\n        external;\r\n}\r\n\r\n/**\r\n * @title FxRoot root contract for fx-portal\r\n */\r\ncontract FxRoot is IFxStateSender {\r\n    IStateSender public stateSender;\r\n    address public fxChild;\r\n\r\n    // TODO: Remove uncomment\r\n    // constructor(address _stateSender) {\r\n    //     stateSender = IStateSender(_stateSender);\r\n    // }\r\n\r\n    function setFxChild(address _fxChild) public {\r\n        require(fxChild == address(0x0));\r\n        fxChild = _fxChild;\r\n    }\r\n\r\n    function sendMessageToChild(address _receiver, bytes calldata _data)\r\n        public\r\n        override\r\n    {\r\n        bytes memory data = abi.encode(msg.sender, _receiver, _data);\r\n\r\n        // TODO: remove uncomment\r\n        // stateSender.syncState(fxChild, data);\r\n    }\r\n}\r\n",
  "sourcePath": "C:\\Users\\Uzair\\Desktop\\workspace\\globalCopy_pulls_v2\\pons-nft\\ethereum_polygon_tests\\contracts\\FxRoot.sol",
  "compiler": {
    "name": "solc",
    "version": "0.8.15+commit.e14f2714.Emscripten.clang"
  },
  "schemaVersion": "3.4.8",
  "updatedAt": "2022-08-02T09:37:32.430Z",
  "devdoc": {
    "kind": "dev",
    "methods": {},
    "title": "FxRoot root contract for fx-portal",
    "version": 1
  },
  "userdoc": {
    "kind": "user",
    "methods": {},
    "version": 1
  }
}